:020000040800F2
:1000000000280020AD1B0008BD1A0008C31A000814
:10001000C91A0008CF1A0008D51A0008000000000D
:10002000000000000000000000000000DB1A0008D3
:10003000E71A000800000000F31A0008FF1A000881
:10004000F51B0008F51B0008F51B0008F51B000850
:10005000F51B0008F51B0008F51B0008F51B000840
:10006000F51B0008F51B0008F51B0008F51B000830
:10007000F51B0008F51B0008F51B0008F51B000820
:10008000F51B0008F51B0008F51B0008F51B000810
:10009000F51B0008F51B0008F51B0008F51B000800
:1000A000F51B0008F51B0008F51B0008F51B0008F0
:1000B0000D1B0008F51B000800000000F51B0008E0
:1000C000F51B00080000000000000000F51B000800
:1000D00000000000F51B0008211B000800000000C4
:1000E000F51B0008F51B0008F51B000800000000C8
:1000F0000000000000000000000000000000000000
:0C01000000000000000000005FF808F1A3
:10010C0010B5054C237833B9044B13B10448AFF345
:10011C0000800123237010BD70000020000000003F
:10012C00EC4C000808B5034B1BB103490348AFF373
:10013C00008008BD0000000074000020EC4C00089A
:10014C0080B483B000AF78607B68084A82FB0312EE
:10015C009210DB17D31A064A1360064B00221A6062
:10016C0000BF0C37BD4680BC704700BF6766666633
:10017C00900000208C00002080B483B000AF786029
:10018C007B68084A82FB03129210DB17D31A064ACB
:10019C001360064B00221A6000BF0C37BD4680BCB2
:1001AC00704700BF676666669800002094000020C8
:1001BC0080B483B000AF78607B68084A82FB03127E
:1001CC009210DB17D31A064A1360064B00221A60F2
:1001DC0000BF0C37BD4680BC704700BF67666666C3
:1001EC00A00000209C00002080B483B000AF786099
:1001FC007B68084A82FB03129210DB17D31A064A5B
:10020C001360064B00221A6000BF0C37BD4680BC41
:10021C00704700BF67666666A8000020A400002037
:10022C0080B400AF214B1B68002B0BDD1F4B1B68F0
:10023C00013B1E4A13601D4B1B68002B02DC1C4B40
:10024C0001221A601B4B1B68002B0BDD194B1B6822
:10025C00013B184A1360174B1B68002B02DC164B32
:10026C0001221A60154B1B68002B0BDD134B1B680E
:10027C00013B124A1360114B1B68002B02DC104B24
:10028C0001221A600F4B1B68002B0BDD0D4B1B68FA
:10029C00013B0C4A13600B4B1B68002B02DC0A4B16
:1002AC0001221A6000BFBD4680BC70479000002040
:1002BC008C0000209800002094000020A00000205A
:1002CC009C000020A8000020A400002080B586B06F
:1002DC0000AFF860B9607A60182004F0AFF80346FC
:1002EC007B617B69FA681A60BB680D4AA2FB032329
:1002FC00DA087B695A607B68094AA2FB0323DA0897
:10030C007B699A607B6900221A737B6900225A61AF
:10031C007B69BA681A617B6918461837BD4680BD7F
:10032C00CDCCCCCC80B400AF044B00225A60034B34
:10033C0000221A6000BFBD4680BC7047000100203F
:10034C0080B485B000AF7860354B1B68282B61D02A
:10035C00334B5B68002B08D1314A7B685360304BC0
:10036C001B6801332E4A136055E02D4B5B68FB6014
:10037C000023BB6011E07B685A68FB685B689A429B
:10038C000FD37B685A68FB685B68D21A7B685A602B
:10039C00FB68BB60FB685B69FB60FB68002BEAD108
:1003AC0000E000BFBB68002B15D11D4B5B68596882
:1003BC007B685A681A4B5B688A1A5A60184B5A68E1
:1003CC007B685A61164A7B685360154B1B68013376
:1003DC00134A13601FE0FB68002B08D1BB687A68D6
:1003EC005A610F4B1B6801330D4A136013E07B6895
:1003FC00FA685A61FB685A687B685B68D21AFB68BA
:10040C005A60BB687A685A61054B1B680133044A11
:10041C00136000E000BF1437BD4680BC704700BFBE
:10042C000001002080B483B000AF0E4B5B68002B42
:10043C0011D00C4B5B687B600A4B5B685B69094AAB
:10044C0053607B6800225A61064B1B68013B054ACE
:10045C0013607B6800E0002318460C37BD4680BC57
:10046C00704700BF0001002080B586B000AFF86077
:10047C00B9607A60084B1B68282B09D07A68B96878
:10048C00F868FFF723FF78617869FFF759FF00E000
:10049C0000BF1837BD4680BD0001002080B400AFFE
:1004AC000E4B5B68002B14D00C4B5B685B68002B0D
:1004BC0004D00A4B5B685A68013A5A60074B5B6878
:1004CC005B68002B05D1054B5B681A7B0132D2B2FD
:1004DC001A7300BFBD4680BC704700BF00010020EE
:1004EC0080B582B000AF184B5B681B7B002B26D00D
:1004FC00154B5B681B689847134B5B681A7B013A7A
:10050C00D2B21A73FFF78EFF78607B689B68002B62
:10051C0012D07B689A687B685A607868FFF710FF86
:10052C00094B5B685B68002B09D1074B5B681A7B36
:10053C000132D2B21A7302E0786800F007F800BFFB
:10054C000837BD4680BD00BF0001002080B582B0D9
:10055C0000AF78607B68002B02D0786803F076FFE0
:10056C0000BF0837BD4680BD80B500AF01224FF4F7
:10057C008061054801F0EBFE00222021034801F0C8
:10058C00E6FE00BF80BD00BF00080140000C01402A
:10059C0080B500AF00224FF48061054801F0D7FE12
:1005AC0001222021034801F0D2FE00BF80BD00BF14
:1005BC0000080140000C014080B500AF01224FF44F
:1005CC008061054801F0C3FE01222021034801F09F
:1005DC00BEFE00BF80BD00BF00080140000C014002
:1005EC0080B500AF01221021044801F0B0FE0022BA
:1005FC000821024801F0ABFE00BF80BD000C014099
:10060C0080B500AF00221021044801F0A0FE0122A9
:10061C000821024801F09BFE00BF80BD000C014088
:10062C0080B500AF01221021044801F090FE012298
:10063C000821024801F08BFE00BF80BD000C014078
:10064C0080B500AF01224FF48061054801F07FFEB8
:10065C0000224FF48071034801F079FE00BF80BD89
:10066C00000C01400008014080B500AF00224FF49F
:10067C008061054801F06BFE01224FF48071034844
:10068C0001F065FE00BF80BD000C01400008014078
:10069C0080B500AF00224FF480610A4801F057FE8C
:1006AC0000222021084801F052FE002210210548AA
:1006BC0001F04DFE00220821034801F048FE00BF66
:1006CC0080BD00BF00080140000C014080B500AFA8
:1006DC0000224FF48061054801F039FE00224FF4EE
:1006EC008071034801F033FE00BF80BD000C014057
:1006FC000008014080B500AF9F4B1B68042B00F233
:10070C00AD8101A252F823F0290700085D0700080B
:10071C0011080008CB080008B1090008964B01220B
:10072C001A60964B1B68184600F0EEFC944B1B6845
:10073C00184600F0FFFC924B1B681846FFF700FDB3
:10074C000A20FFF719FD8F4B4FF0FF321A608EE134
:10075C00FFF70AFFFFF754FF8B4B1B68012B05D1EA
:10076C0000F0FEFC4FF47A70FFF706FD874B1B6818
:10077C00012B11D1804B02221A60854B1B68184645
:10078C0000F0C2FC824B1B68184600F0D3FC804B77
:10079C001B681846FFF7D4FC7E4B5B68012B0DD110
:1007AC00012000F01FFE7B4B00225A60724B0B2283
:1007BC001A60794B1B681846FFF7C2FC754B1B6817
:1007CC00012B08D1734B00221A60022000F00AFEA4
:1007DC00694B0F221A606F4BDB68012B40F0408194
:1007EC00684B01221A606D4B1B681846FFF7E0FC42
:1007FC00684B0022DA606A4B01221A601420FFF762
:10080C00F3FC2DE1FFF7B0FEFFF70AFF5E4B1B6810
:10081C00012B05D100F0A4FC4FF47A70FFF7ACFC6F
:10082C005A4B1B68012B11D1534B03221A60544BAA
:10083C001B68184600F068FC504B1B68184600F00B
:10084C0079FC4F4B1B681846FFF77AFC514B1B6821
:10085C00012B08D14F4B00221A60022000F0C2FD80
:10086C00454B0F221A604B4B5B68012B10D10120BA
:10087C0000F0B8FD474B00225A603F4B0C221A6027
:10088C00404B0C221A60444B1B681846FFF758FC6F
:10089C00404BDB68012B40F0E5803A4B02221A609A
:1008AC003E4B1B681846FFF783FC3A4B0022DA607C
:1008BC003B4B01221A601420FFF796FCD2E0FFF7A5
:1008CC008FFEFFF765FE304B1B68012B05D100F046
:1008DC0047FC4FF47A70FFF74FFC2C4B1B68012B35
:1008EC0011D1254B04221A60294B1B68184600F0C5
:1008FC000BFC274B1B68184600F01CFC244B1B6898
:10090C001846FFF71DFC234B1B68012B08D1214B0C
:10091C0000221A60022000F065FD174B0F221A60AE
:10092C001C4B5B68012B10D1012000F05BFD194BB7
:10093C0000225A60104B0D221A60124B0D221A60C5
:10094C00154B1B681846FFF7FBFB124BDB68012BA2
:10095C0040F08A800B4B03221A60104B1B68184620
:10096C00FFF726FC0B4B0022DA600D4B01221A60BC
:10097C001420FFF739FC77E0B4000020C4000020FD
:10098C00BC000020B8000020940000208C00002047
:10099C00C000002008010020C8000020CC0000206E
:1009AC00D8000020FFF71CFEFFF706FE314B1B683A
:1009BC00012B05D100F0D4FB4FF47A70FFF7DCFB70
:1009CC002D4B1B68012B11D12C4B01221A602C4B87
:1009DC001B68184600F098FB2A4B1B68184600F061
:1009EC00A9FB284B1B681846FFF7AAFB264B1B6874
:1009FC00012B08D1244B00221A60022000F0F2FCDB
:100A0C001E4B0F221A60204B5B68012B10D101206A
:100A1C0000F0E8FC1C4B00225A60184B0E221A60A6
:100A2C001A4B0E221A601A4B1B681846FFF788FBEC
:100A3C00154BDB68012B19D1144B04221A60154B92
:100A4C001B681846FFF7B4FB0F4B0022DA60124B01
:100A5C0001221A601420FFF7C7FB07E000BF06E075
:100A6C0000BF04E000BF02E000BF00E000BF00BF19
:100A7C0080BD00BF940000208C000020B40000203A
:100A8C00C4000020BC00002008010020B800002099
:100A9C00C8000020CC000020D800002080B500AF9A
:100AAC00784B1B680B3B032B00F2E08001A252F841
:100ABC0023F000BFD10A0008390B0008A50B000871
:100ACC000F0C0008FFF79CFD6F4B1B68012B14D11A
:100ADC00002000F087FC6B4B01221A606B4B1B68EB
:100AEC00184600F011FB6A4B1B68184600F022FBFD
:100AFC00674B1B681846FFF723FB664B5B68012BA3
:100B0C0040F0B680634B00225A605E4B0C221A6098
:100B1C00614B0C221A60614B1B681846FFF748FBAF
:100B2C005E4B1B681846FFF70BFBA1E0FFF71CFDA3
:100B3C00FFF776FD544B1B68012B14D1002000F0FD
:100B4C0051FC504B02221A60554B1B68184600F0A2
:100B5C00DBFA534B1B68184600F0ECFA504B1B6841
:100B6C001846FFF7EDFA4B4B5B68012B40F0828087
:100B7C00484B00225A60434B0D221A60464B0D2203
:100B8C001A60464B1B681846FFF712FB434B1B6859
:100B9C001846FFF7D5FA6DE0FFF722FDFFF7F8FCDA
:100BAC00394B1B68012B14D1002000F01BFC354B7A
:100BBC0003221A60364B1B68184600F0A5FA334B1B
:100BCC001B68184600F0B6FA314B1B681846FFF745
:100BDC00B7FA304B5B68012B4ED12E4B00225A607A
:100BEC00284B0E221A602C4B0E221A602B4B1B68C2
:100BFC001846FFF7DDFA294B1B681846FFF7A0FAD9
:100C0C003AE0FFF7EDFCFFF7D7FC1F4B1B68012BFD
:100C1C0014D1002000F0E6FB1A4B04221A60204B82
:100C2C001B68184600F070FA1D4B1B68184600F044
:100C3C0081FA1B4B1B681846FFF782FA154B5B6851
:100C4C00012B1BD1134B00225A600E4B0B221A6046
:100C5C00114B0B221A60114B1B681846FFF7A8FAB0
:100C6C000E4B1B681846FFF76BFA07E000BF06E057
:100C7C0000BF04E000BF02E000BF00E000BF00BF07
:100C8C0080BD00BFB40000208C000020C4000020F8
:100C9C00BC00002008010020B8000020C800002083
:100CAC00C000002080B500AF984B1B68012B0CD105
:100CBC00974B1A68974B1B689A4202D0002000F0A1
:100CCC00E3FB944B1B68924A1360914B1B68013BEE
:100CDC000D2B00F2108101A252F823F0210D000817
:100CEC004F0D0008770D0008EB0D0008030F0008EE
:100CFC00030F0008030F0008030F0008030F000880
:100D0C00030F00085F0E0008850E0008B10E0008E6
:100D1C00D70E0008804B1B68012B0FD1002000F070
:100D2C00B3FBFFF7D3FC7A4B4FF0FF321A60774BD3
:100D3C0000221A600020FFF757FAE5E0FFF780FC6D
:100D4C00E2E0754B1B68012B0CD1002000F09CFBE2
:100D5C00FFF7BCFC6E4B4FF0FF321A600020FFF720
:100D6C0043FAD1E0FFF76CFCCEE06C4B1B68052B13
:100D7C001EDC6B4B1B68012B1AD16A4B1B68012BB9
:100D8C0007D14FF47A7000F07FFB664B00221A609B
:100D9C0005E0002000F078FB624B01221A605F4BEB
:100DAC001B68322202FB03F30A331846FFF71CFAC6
:100DBC00594B1B68012B0FD1002000F065FBFFF78E
:100DCC0085FC534B4FF0FF321A60504B00221A60D7
:100DDC000020FFF709FA97E0FFF746FC94E04F4B31
:100DEC001B68052B1EDC4E4B1B68012B1AD14D4B7F
:100DFC001B68012B07D14FF47A7000F045FB494B6F
:100E0C0000221A6005E0002000F03EFB454B012259
:100E1C001A60424B1B68322202FB03F30A3318465A
:100E2C00FFF7E2F93C4B1B68012B0FD1002000F0BF
:100E3C002BFBFFF74BFC364B4FF0FF321A60334B5A
:100E4C0000221A600020FFF7CFF95DE0FFF70CFCE1
:100E5C005AE0FFF7F5FB304B1B68012B4DD10020FE
:100E6C0000F012FBFFF732FC294B4FF0FF321A60F7
:100E7C000020FFF7B9F940E0FFF7E2FB264B1B68B7
:100E8C00012B3CD1002000F0FFFAFFF71FFC204B98
:100E9C004FF0FF321A601D4B00221A600020FFF742
:100EAC00A3F92CE0FFF7E0FB1B4B1B68012B28D1AF
:100EBC00002000F0E9FAFFF709FC154B4FF0FF3268
:100ECC001A600020FFF790F91BE0FFF7CDFB124BE7
:100EDC001B68012B17D1002000F0D6FAFFF7F6FBA8
:100EEC000B4B4FF0FF321A60084B00221A600020A7
:100EFC00FFF77AF907E000BF06E000BF04E000BF8F
:100F0C0002E000BF00E000BF00BF80BDD8000020A1
:100F1C00B8000020B40000209C000020D400002069
:100F2C00A4000020AC00002080B500AF4A4B1B6829
:100F3C000F2B02D0102B43D08BE0FFF729FBFFF7D0
:100F4C005FFB464B1B68012B05D1444B00221A60FA
:100F5C00414B10221A60414B5B68012B11D13F4B66
:100F6C0000225A603E4B1B6803F57A731946002029
:100F7C0000F0FCF93A4B1B6803F57A73184600F045
:100F8C0073F8364B9B68012B60D1344B00229A606E
:100F9C00334B1B68B3F57A7F0FDD314B1B68A3F520
:100FAC007A731946002000F0E1F92D4B1B68A3F56C
:100FBC007A73184600F058F848E000F0BBF945E0A9
:100FCC00FFF7FAFAFFF72CFB244B1B68012B08D117
:100FDC00224B00221A60002000F004FA1E4B002263
:100FEC001A601E4B5B68012B11D11C4B00225A60FE
:100FFC001C4B1B6803F57A731946012000F0B6F9F7
:10100C00184B1B6803F57A73184600F047F8134B1E
:10101C009B68012B1CD1114B00229A60114B1B6851
:10102C00B3F57A7F0FDD0F4B1B68A3F57A73194666
:10103C00012000F09BF90B4B1B68A3F57A73184643
:10104C0000F02CF804E000F075F901E000BF00E0BE
:10105C0000BF00BF80BD00BFB4000020080100200D
:10106C00BC000020C000002080B483B000AF7860CA
:10107C00074A7B681360064B1A68064B1B681344BF
:10108C00054A136000BF0C37BD4680BC704700BFDB
:10109C00BC000020C0000020C400002080B483B03D
:1010AC0000AF7860074A7B681360074B1A68054BE2
:1010BC001B681344054A136000BF0C37BD4680BC47
:1010CC00704700BFC0000020BC000020C4000020FE
:1010DC0080B483B000AF7860034A7B68136000BFB4
:1010EC000C37BD4680BC7047C800002080B483B06C
:1010FC0000AF7860034A7B68136000BF0C37BD46B5
:10110C0080BC7047CC00002080B483B000AF786006
:10111C007B68064A82FB03129211DB17D31A044A2E
:10112C00136000BF0C37BD4680BC7047D34D6210B6
:10113C00D000002080B483B000AF78607B68064A92
:10114C0082FB03129211DB17D31A044A136000BFFF
:10115C000C37BD4680BC7047D34D6210D4000020C4
:10116C0080B500AF0D4B1B680D4A1268114618462E
:10117C0000F06CF9094B1B68002B04DD074B1B6856
:10118C00013B064A1360064B1B68002B04DD044B25
:10119C001B68013B024A136000BF80BDD0000020D9
:1011AC00D400002080B483B000AF0346FB71FB7900
:1011BC00044A012142F8231000BF0C37BD4680BC05
:1011CC00704700BF0801002090B583B000AF00232A
:1011DC00FB7197E0FA79FB794F49895C4F4AD154FE
:1011EC00FA79FB794E49895C4B4AD154FB79032B34
:1011FC0032D801A252F823F0151200082912000867
:10120C003D12000851120008FC790221454801F0FA
:10121C0087F803461A46424B1A5522E0FC792021E6
:10122C00404801F07DF803461A463D4B1A5518E02C
:10123C00FC7901213C4801F073F803461A46384BFF
:10124C001A550EE0FC790221374801F069F8034683
:10125C001A46334B1A5504E0FB79314A0121D1541B
:10126C0000BFFB792D4AD25CFB792B49CB5C9A42AF
:10127C0045D1FB79284AD25CFB792949CB5C9A424F
:10128C003DD1FB79294AD25CFB792549CB5C9A424A
:10129C0015D0FA79FB792249895C244AD154FB791F
:1012AC00224AD35C002B2AD1FB79214A4FF4967148
:1012BC0022F81310FB791846FFF774FF1FE0FB7937
:1012CC00002B1CD0FB791A4A32F81320013A91B248
:1012DC00174A22F81310FB79154A32F81330002BF9
:1012EC000DD1FB79114AD35C002B08D1FB79104A44
:1012FC00642122F81310FB791846FFF753FFFB7992
:10130C000133FB71FB79032B7FF664AF00BF00BF89
:10131C000C37BD4690BD00BFE4000020E00000206B
:10132C00E800002000080140000C0140DC00002017
:10133C00EC00002080B58AB000AF786007F108039C
:10134C007A680849184603F047F903469AB207F140
:10135C0008014FF47A73044802F0BBFB00BF283736
:10136C00BD4680BD044D0008A8010020B0B594B066
:10137C0000AF78603960174B07F108041D460FCD9C
:10138C000FC40FCD0FC495E8030084E8030007F1E8
:10139C0008017A6813469B0013449B0019443B6870
:1013AC000D4A82FB03029211DB17D31A07F13000AE
:1013BC000A460A4903F010F903469AB207F13001C4
:1013CC004FF47A73064802F084FB00BF5037BD46D9
:1013DC00B0BD00BF244D0008D34D62101C4D000859
:1013EC00A8010020B0B59AB000AF7860144B07F19B
:1013FC002C041D460FCD0FC40FCD0FC40FCD0FC441
:10140C0095E8070084E8070007F12C017A68134679
:10141C009B0013449B00CA1807F10C03094918469A
:10142C0003F0DAF803469AB207F10C014FF47A7321
:10143C00054802F04EFB00BF6837BD46B0BD00BF8B
:10144C005C4D00084C4D0008A801002080B590B000
:10145C0000AF7860396007F10C003B687A68084986
:10146C0003F0BAF803469AB207F10C014FF47A7301
:10147C00044802F02EFB00BF4037BD4680BD00BFC4
:10148C00984D0008A801002080B483B000AF7860AC
:10149C00044B1B687A685A6300BF0C37BD4680BC8E
:1014AC00704700BF1801002080B500AF00F09EFB14
:1014BC0000F062F800F088F900F09AF800F084F976
:1014CC0000F058F900F0E0F80021224801F066FC29
:1014DC00214801F0BFFBFFF7DBF8FFF7F7F8FEF749
:1014EC0021FF1E4B00221A6041F28830FFF7BCFD31
:1014FC0041F28830FFF7D2FD44F62060FFF7E8FD9B
:10150C004EF66020FFF7F2FD462200211448FEF74C
:10151C00ABFF0A2200211348FEF7A6FF0A22002186
:10152C001148FEF7A1FF0A2200211048FEF79CFF8C
:10153C000A2200210E48FEF797FF0A2200210D48CF
:10154C00FEF792FF0021034801F028FCFEF7C8FFCC
:10155C00FCE700BF1801002060010020B40000204F
:10156C00D51100082D02000801070008B10C000875
:10157C00A90A0008350F000880B590B000AF07F13C
:10158C00180328220021184602F068FF3B1D002298
:10159C001A605A609A60DA601A610223BB610123F7
:1015AC00BB621023FB6200237B6307F11803184610
:1015BC0000F0E6FE0346002B01D000F085F90F2366
:1015CC007B600023BB600023FB6000233B61002396
:1015DC007B613B1D0021184601F052F90346002B9C
:1015EC0001D000F071F900BF4037BD4680BD00004E
:1015FC0080B586B000AF07F1080300221A605A606C
:10160C009A60DA603B4600221A605A601D4B4FF01C
:10161C0080421A601B4B41F63F725A60194B0022F4
:10162C009A60184B0922DA60164B00221A61154B8E
:10163C0000229A61134801F0BDFA0346002B01D039
:10164C0000F042F94FF48053BB6007F108031946D0
:10165C000C4801F005FE0346002B01D000F034F9D4
:10166C0000233B6000237B603B461946054802F093
:10167C0079F90346002B01D000F026F900BF18378A
:10168C00BD4680BD6001002080B58EB000AF07F173
:10169C00280300221A605A609A60DA6007F120036E
:1016AC0000221A605A603B1D00221A605A609A6030
:1016BC00DA601A615A619A612C4B2D4A1A602B4BD5
:1016CC003F225A60294B00229A60284B40F2E732A5
:1016DC00DA60264B00221A61244B00229A612348BF
:1016EC0001F068FA0346002B01D000F0EDF84FF43E
:1016FC008053BB6207F1280319461C4801F0B0FD6A
:10170C000346002B01D000F0DFF8184801F0EEFA88
:10171C000346002B01D000F0D7F800233B620023D6
:10172C007B6207F120031946104802F01BF90346AF
:10173C00002B01D000F0C8F860237B600023BB6055
:10174C000023FB6000237B613B1D002219460748E8
:10175C0001F0C8FC0346002B01D000F0B5F803489B
:10176C0000F022F900BF3837BD4680BD18010020BB
:10177C000004004080B500AF114B124A1A60104BA8
:10178C004FF416525A600E4B00229A600C4B0022FA
:10179C00DA600B4B00221A61094B0C225A61084B80
:1017AC0000229A61064B0022DA61054802F044F9E6
:1017BC000346002B01D000F087F800BF80BD00BFAE
:1017CC00A80100200044004080B586B000AF07F1AE
:1017DC00080300221A605A609A60DA602E4B9B69EB
:1017EC002D4A43F0040393612B4B9B6903F00403D4
:1017FC007B607B68284B9B69274A43F00803936105
:10180C00254B9B6903F008033B603B6800224FF4B7
:10181C008761224800F09BFD00224FF4A061204814
:10182C0000F095FD2223BB600023FB6001233B618C
:10183C0007F1080319461A4800F0F8FB0323BB60B4
:10184C000023FB6001233B6107F108031946134891
:10185C0000F0ECFB4FF48763BB600123FB600023BB
:10186C003B6102237B6107F1080319460B4800F02A
:10187C00DDFB4FF4A063BB600123FB6000233B61E5
:10188C0002237B6107F108031946054800F0CEFBE3
:10189C0000BF1837BD4680BD00100240000C01404F
:1018AC000008014080B582B000AF7860FEF7F6FD0D
:1018BC00044B1B680A33034A136000BF0837BD464C
:1018CC0080BD00BFB000002080B400AF72B600BF76
:1018DC00FEE7000080B485B000AF154B9B69144A3D
:1018EC0043F001039361124B9B6903F00103BB604E
:1018FC00BB680F4BDB690E4A43F08053D3610C4B32
:10190C00DB6903F080537B607B680A4B5B68FB6090
:10191C00FB6823F0E063FB60FB6843F08063FB60D3
:10192C00044AFB68536000BF1437BD4680BC704747
:10193C00001002400000014080B584B000AF786018
:10194C007B681B68B3F1804F14D1154BDB69144ACB
:10195C0043F00103D361124BDB6903F00103FB601D
:10196C00FB68002200211C2000F079FA1C2000F0FA
:10197C0092FA10E07B681B680A4A93420BD1084B21
:10198C00DB69074A43F00203D361054BDB6903F0C3
:10199C000203BB60BB6800BF1037BD4680BD00BFF3
:1019AC00001002400004004080B588B000AF7860A1
:1019BC0007F1100300221A605A609A60DA607B68A3
:1019CC001B680F4A934217D10E4B9B690D4A43F08B
:1019DC00040393610B4B9B6903F00403FB60FB68EE
:1019EC0040233B6102237B610223FB6107F110035F
:1019FC001946054800F01AFB00BF2037BD4680BDD4
:101A0C0000040040001002400008014080B588B07E
:101A1C0000AF786007F1100300221A605A609A60D8
:101A2C00DA607B681B681F4A934237D11E4BDB6917
:101A3C001D4A43F40033D3611B4BDB6903F40033C1
:101A4C00FB60FB68184B9B69174A43F004039361D6
:101A5C00154B9B6903F00403BB60BB6804233B611B
:101A6C0002237B610323FB6107F1100319460F4826
:101A7C0000F0DCFA08233B6100237B610023BB618F
:101A8C0007F110031946094800F0D0FA0022002192
:101A9C00262000F0E4F9262000F0FDF900BF2037E5
:101AAC00BD4680BD004400400010024000080140CB
:101ABC0080B400AFFEE780B400AFFEE780B400AFA7
:101ACC00FEE780B400AFFEE780B400AFFEE780B461
:101ADC0000AF00BFBD4680BC704780B400AF00BFF4
:101AEC00BD4680BC704780B400AF00BFBD4680BC13
:101AFC00704780B500AF00F0BFF800BF80BD00009C
:101B0C0080B500AF024801F0E5F900BF80BD00BF11
:101B1C006001002080B500AF024802F06DF800BFF4
:101B2C0080BD00BFA801002080B586B000AF7860F2
:101B3C00144A154BD31A7B617B693B61134B1B68B1
:101B4C00002B02D1114B124A1A60104B1A687B6899
:101B5C0013443A699A4207D202F046FC03460C221F
:101B6C001A604FF0FF3309E0084B1B68FB60074B12
:101B7C001A687B681344054A1360FB6818461837CB
:101B8C00BD4680BD0028002000040000F4000020A9
:101B9C000002002080B400AF00BFBD4680BC70477F
:101BAC000C480D490D4A002302E0D458C4500433AC
:101BBC00C4188C42F9D30A4A0A4C002301E0136082
:101BCC000432A242FBD3FFF7E5FF02F013FCFFF750
:101BDC006BFC70470000002070000020144E0008C1
:101BEC007000002000020020FEE7000080B500AF6E
:101BFC00084B1B68074A43F010031360032000F0E6
:101C0C0023F90F2000F008F8FFF764FE00231846B4
:101C1C0080BD00BF0020024080B582B000AF78606C
:101C2C00124B1A68124B1B7819464FF47A73B3FB9C
:101C3C00F1F3B2FBF3F3184600F03BF90346002B2B
:101C4C0001D001230EE07B680F2B0AD800227968A3
:101C5C004FF0FF3000F003F9064A7B681360002355
:101C6C0000E0012318460837BD4680BD0000002067
:101C7C00080000200400002080B400AF054B1B7846
:101C8C001A46054B1B681344034A136000BFBD463C
:101C9C0080BC704708000020EC01002080B400AF2D
:101CAC00024B1B681846BD4680BC7047EC010020F7
:101CBC0080B485B000AF78607B6803F00703FB60ED
:101CCC000C4BDB68BB60BA684FF6FF031340BB607C
:101CDC00FB681A02BB68134343F0BF6343F4003341
:101CEC00BB60044ABB68D36000BF1437BD4680BCE0
:101CFC00704700BF00ED00E080B400AF044BDB6820
:101D0C001B0A03F007031846BD4680BC704700BF92
:101D1C0000ED00E080B483B000AF0346FB7197F98F
:101D2C000730002B0BDBFB7903F01F02064997F9F8
:101D3C0007305B09012000FA02F241F8232000BFB2
:101D4C000C37BD4680BC704700E100E080B483B026
:101D5C0000AF03463960FB7197F90730002B0ADBA3
:101D6C003B68DAB20C4997F907301201D2B20B4436
:101D7C0083F800230AE03B68DAB20849FB7903F0E8
:101D8C000F03043B1201D2B20B441A7600BF0C377E
:101D9C00BD4680BC704700BF00E100E000ED00E0F4
:101DAC0080B489B000AFF860B9607A60FB6803F06A
:101DBC000703FB61FB69C3F10703042B28BF042352
:101DCC00BB61FB690433062B02D9FB69033B00E0C2
:101DDC0000237B614FF0FF32BB6902FA03F3DA4355
:101DEC00BB681A407B699A404FF0FF317B6901FA5E
:101DFC0003F3D9437B680B40134318462437BD4685
:101E0C0080BC704780B582B000AF78607B68013BC6
:101E1C00B3F1807F01D301230FE00A4A7B68013BB9
:101E2C0053600F214FF0FF30FFF790FF054B00225E
:101E3C009A60044B07221A60002318460837BD46E7
:101E4C0080BD00BF10E000E080B582B000AF7860CC
:101E5C007868FFF72DFF00BF0837BD4680BD80B501
:101E6C0086B000AF0346B9607A60FB7300237B61D8
:101E7C00FFF742FF78617A68B9687869FFF790FFDD
:101E8C00024697F90F3011461846FFF75FFF00BF67
:101E9C001837BD4680BD80B582B000AF0346FB71DC
:101EAC0097F907301846FFF735FF00BF0837BD46D6
:101EBC0080BD80B582B000AF78607868FFF7A2FF74
:101ECC00034618460837BD4680BD80B485B000AFC8
:101EDC0078600023FB737B6893F82130022B08D0C9
:101EEC007B6804229A637B68002283F820200123FC
:101EFC0020E07B681B681A687B681B6822F00E0266
:101F0C001A607B681B681A687B681B6822F00102E8
:101F1C001A607B681A6C7B68DB6B012101FA02F298
:101F2C005A607B68012283F821207B68002283F8A9
:101F3C002020FB7B18461437BD4680BC7047000040
:101F4C0080B584B000AF78600023FB737B6893F896
:101F5C002130022B05D07B6804229A630123FB738A
:101F6C0051E07B681B681A687B681B6822F00E02C4
:101F7C001A607B681B681A687B681B6822F0010278
:101F8C001A607B681B68224A934229D07B681B68C5
:101F9C00204A934222D07B681B681F4A93421AD076
:101FAC007B681B681D4A934212D07B681B681C4AD5
:101FBC0093420AD07B681B681A4A934202D14FF4B1
:101FCC0080130EE04FF080730BE04FF4803308E089
:101FDC004FF4805305E04FF4807302E0102300E0CF
:101FEC000123114A53607B68012283F821207B680E
:101FFC00002283F820207B685B6B002B03D07B686E
:10200C005B6B78689847FB7B18461037BD4680BDE4
:10201C00080002401C000240300002404400024014
:10202C00580002406C0002400000024080B48BB0AB
:10203C0000AF7860396000237B6200233B6248E18B
:10204C0001227B6A02FA03F3FB613B681B68FA69A5
:10205C001340BB61BA69FB699A4240F037813B6817
:10206C005B68A34A93425ED0A14A934275D8A14AB9
:10207C00934258D09F4A93426FD89F4A934252D072
:10208C009D4A934269D89D4A93424CD09B4A9342B5
:10209C0063D89B4A934246D0994A93425DD8122BFF
:1020AC002AD8122B59D801A252F823F03321000858
:1020BC000D2100081F21000861210008672100087C
:1020CC0067210008672100086721000867210008C4
:1020DC0067210008672100086721000867210008B4
:1020EC0067210008672100086721000867210008A4
:1020FC001521000829210008824A934213D02CE0B4
:10210C003B68DB683B6229E03B68DB6804333B627D
:10211C0024E03B68DB6808333B621FE03B68DB680C
:10212C000C333B621AE03B689B68002B02D1042302
:10213C003B6213E03B689B68012B05D108233B6293
:10214C007B68FA691A6109E008233B627B68FA69CB
:10215C005A6103E000233B6200E000BFBB69FF2B28
:10216C0001D87B6801E07B6804337B61BB69FF2B82
:10217C0002D87B6A9B0002E07B6A083B9B003B61B8
:10218C007B691A680F213B6901FA03F3DB431A40A0
:10219C00396A3B6901FA03F31A437B691A603B689D
:1021AC005B6803F08053002B00F09080564B9B69CA
:1021BC00554A43F001039361534B9B6903F00103B0
:1021CC00BB60BB68514A7B6A9B08023352F82330D0
:1021DC00FB607B6A03F003039B000F2202FA03F3FC
:1021EC00DB43FA681340FB607B68494A93420DD08D
:1021FC007B68484A934207D07B68474A934201D197
:10220C00022304E0032302E0012300E000237A6AA6
:10221C0002F0030292009340FA681343FB603B49BF
:10222C007B6A9B080233FA6841F823203B685B68A1
:10223C0003F48033002B06D0384B1A683749BB693E
:10224C0013430B6006E0354B1A68BB69DB4333491B
:10225C0013400B603B685B6803F40033002B06D023
:10226C002E4B5A682D49BB6913434B6006E02B4B30
:10227C005A68BB69DB43294913404B603B685B6878
:10228C0003F48013002B06D0244B9A682349BB69B6
:10229C0013438B6006E0214B9A68BB69DB431F49F3
:1022AC0013408B603B685B6803F40013002B06D073
:1022BC001A4BDA681949BB691343CB6006E0174B1C
:1022CC00DA68BB69DB4315491340CB607B6A013389
:1022DC007B623B681A687B6A22FA03F3002B7FF45B
:1022EC00AFAE00BF00BF2C37BD4680BC704700BFEF
:1022FC0000003210000031100000221000002110EC
:10230C0000001210000011100010024000000140EB
:10231C0000080140000C0140001001400004014085
:10232C0080B485B000AF78600B467B807B689A6880
:10233C007B881340002B02D00123FB7301E00023A8
:10234C00FB73FB7B18461437BD4680BC704780B4CA
:10235C0083B000AF78600B467B8013467B707B7834
:10236C00002B03D07A887B681A6103E07B881A04FF
:10237C007B681A6100BF0C37BD4680BC70470000FB
:10238C0080B586B000AF78607B68002B01D101234B
:10239C006CE27B681B6803F00103002B00F0878064
:1023AC00924B5B6803F00C03042B0CD08F4B5B68D7
:1023BC0003F00C03082B12D18C4B5B6803F48033B5
:1023CC00B3F5803F0BD1894B1B6803F40033002B12
:1023DC006CD07B685B68002B68D1012346E27B687C
:1023EC005B68B3F5803F06D1804B1B687F4A43F492
:1023FC00803313602EE07B685B68002B0CD17B4B29
:10240C001B687A4A23F480331360784B1B68774A35
:10241C0023F4802313601DE07B685B68B3F5A02F69
:10242C000CD1724B1B68714A43F4802313606F4BC1
:10243C001B686E4A43F4803313600BE06B4B1B68D4
:10244C006A4A23F480331360684B1B68674A23F491
:10245C00802313607B685B68002B13D0FFF71EFC96
:10246C00386108E0FFF71AFC02463B69D31A642B6B
:10247C0001D90323FAE15D4B1B6803F40033002BF5
:10248C00F0D014E0FFF70AFC386108E0FFF706FC17
:10249C0002463B69D31A642B01D90323E6E1534B63
:1024AC001B6803F40033002BF0D100E000BF7B6805
:1024BC001B6803F00203002B63D04C4B5B6803F0EA
:1024CC000C03002B0BD0494B5B6803F00C03082B5F
:1024DC001CD1464B5B6803F48033002B16D1434B65
:1024EC001B6803F00203002B05D07B681B69012BD2
:1024FC0001D00123BAE13D4B1B6823F0F8027B6845
:10250C005B69DB00394913430B603AE07B681B695C
:10251C00002B20D0364B01221A60FFF7BFFB38612D
:10252C0008E0FFF7BBFB02463B69D31A022B01D92B
:10253C0003239BE12D4B1B6803F00203002BF0D00F
:10254C002A4B1B6823F0F8027B685B69DB00274988
:10255C0013430B6015E0264B00221A60FFF79EFB1D
:10256C00386108E0FFF79AFB02463B69D31A022B4D
:10257C0001D903237AE11D4B1B6803F00203002BE6
:10258C00F0D17B681B6803F00803002B3AD07B6802
:10259C009B69002B19D0174B01221A60FFF77EFBA9
:1025AC00386108E0FFF77AFB02463B69D31A022B2D
:1025BC0001D903235AE10D4B5B6A03F00203002B94
:1025CC00F0D0012000F0D8FA1CE00A4B00221A606F
:1025DC00FFF764FB38610FE0FFF760FB02463B69D5
:1025EC00D31A022B08D9032340E100BF001002408C
:1025FC0000004242800442429E4B5B6A03F002039D
:10260C00002BE9D17B681B6803F00403002B00F05E
:10261C00A6800023FB75974BDB6903F08053002BDE
:10262C000DD1944BDB69934A43F08053D361914BAA
:10263C00DB6903F08053BB60BB680123FB758E4BD9
:10264C001B6803F48073002B18D18B4B1B688A4AD0
:10265C0043F480731360FFF721FB386108E0FFF748
:10266C001DFB02463B69D31A642B01D90323FDE001
:10267C00814B1B6803F48073002BF0D07B68DB6804
:10268C00012B06D17B4B1B6A7A4A43F00103136280
:10269C002DE07B68DB68002B0CD1764B1B6A754AEE
:1026AC0023F001031362734B1B6A724A23F0040379
:1026BC0013621CE07B68DB68052B0CD16D4B1B6A2D
:1026CC006C4A43F0040313626A4B1B6A694A43F079
:1026DC00010313620BE0674B1B6A664A23F001038C
:1026EC001362644B1B6A634A23F0040313627B6816
:1026FC00DB68002B15D0FFF7D1FA38610AE0FFF741
:10270C00CDFA02463B69D31A41F28832934201D981
:10271C000323ABE0574B1B6A03F00203002BEED0F4
:10272C0014E0FFF7BBFA38610AE0FFF7B7FA02468C
:10273C003B69D31A41F28832934201D9032395E0C5
:10274C004C4B1B6A03F00203002BEED1FB7D012BDB
:10275C0005D1484BDB69474A23F08053D3617B6832
:10276C00DB69002B00F08180424B5B6803F00C03AB
:10277C00082B61D07B68DB69022B46D13F4B0022D2
:10278C001A60FFF78BFA386108E0FFF787FA024608
:10279C003B69D31A022B01D9032367E0354B1B6825
:1027AC0003F00073002BF0D17B681B6AB3F5803FFC
:1027BC0008D1304B5B6823F400327B689B682D4951
:1027CC0013434B602B4B5B6823F474127B68196AC0
:1027DC007B685B6A0B43274913434B60274B0122F1
:1027EC001A60FFF75BFA386108E0FFF757FA024608
:1027FC003B69D31A022B01D9032337E01D4B1B680D
:10280C0003F00073002BF0D02FE01C4B00221A6059
:10281C00FFF744FA386108E0FFF740FA02463B69DB
:10282C00D31A022B01D9032320E0124B1B6803F0AF
:10283C000073002BF0D118E07B68DB69012B01D110
:10284C00012313E00B4B5B68FB60FB6803F48032E5
:10285C007B681B6A9A4206D1FB6803F470127B6892
:10286C005B6A9A4201D0012300E000231846183716
:10287C00BD4680BD00100240007000406000424226
:10288C0080B584B000AF786039607B68002B01D1D3
:10289C000123D0E06A4B1B6803F007033A689A42A5
:1028AC0010D9674B1B6823F0070265493B6813433B
:1028BC000B60634B1B6803F007033A689A4201D024
:1028CC000123B8E07B681B6803F00203002B20D0C7
:1028DC007B681B6803F00403002B05D0594B5B6825
:1028EC00584A43F4E06353607B681B6803F00803A9
:1028FC00002B05D0534B5B68524A43F46053536032
:10290C00504B5B6823F0F0027B689B684D49134386
:10291C004B607B681B6803F00103002B40D07B6885
:10292C005B68012B07D1474B1B6803F40033002B6A
:10293C0015D101237FE07B685B68022B07D1414BEB
:10294C001B6803F00073002B09D1012373E03D4B8E
:10295C001B6803F00203002B01D101236BE0394B00
:10296C005B6823F003027B685B68364913434B605A
:10297C00FFF794F9F8600AE0FFF790F90246FB685C
:10298C00D31A41F28832934201D9032353E02D4BE1
:10299C005B6803F00C027B685B689B009A42EBD18E
:1029AC00274B1B6803F007033A689A4210D2244B5A
:1029BC001B6823F0070222493B6813430B60204B32
:1029CC001B6803F007033A689A4201D0012332E0F6
:1029DC007B681B6803F00403002B08D0194B5B6861
:1029EC0023F4E0627B68DB68164913434B607B6819
:1029FC001B6803F00803002B09D0124B5B6823F40F
:102A0C0060527B681B69DB000E4913434B6000F07E
:102A1C0021F802460B4B5B681B0903F00F030A49B4
:102A2C00CB5C22FA03F3094A1360094B1B68184666
:102A3C00FFF7F2F8002318461037BD4680BD00BFE3
:102A4C000020024000100240C04D00080000002091
:102A5C000400002090B48AB000AF2A4B3C1D0FCB71
:102A6C0084E80F0040F201233B800023FB6100232C
:102A7C00BB6100237B6200237B6100233B62224B02
:102A8C005B68FB61FB6903F00C03042B02D0082B81
:102A9C0003D02DE01D4B3B622DE0FB699B0C03F03A
:102AAC000F0307F12802134413F8243C7B61FB69E4
:102ABC0003F48033002B13D0134B5B685B0C03F0D7
:102ACC00010307F12802134413F8283CBB617B690E
:102ADC000E4A02FB03F2BB69B2FBF3F37B6204E028
:102AEC007B690B4A02FB03F37B627B6A3B6202E06D
:102AFC00064B3B6200BF3B6A18462837BD4690BC6C
:102B0C00704700BFB04D00080010024000127A0060
:102B1C0000093D0080B400AF024B1B681846BD464F
:102B2C0080BC70470000002080B500AFFFF7F2FFBB
:102B3C000246054B5B681B0A03F007030349CB5C99
:102B4C0022FA03F3184680BD00100240D04D000855
:102B5C0080B500AFFFF7DEFF0246054B5B68DB0A72
:102B6C0003F007030349CB5C22FA03F3184680BD3C
:102B7C0000100240D04D000880B485B000AF7860E2
:102B8C000A4B1B680A4AA2FB03235B0A7A6802FB06
:102B9C0003F3FB6000BFFB685A1EFA60002BF9D1EF
:102BAC0000BF00BF1437BD4680BC7047000000203A
:102BBC00D34D621080B582B000AF78607B68002B7B
:102BCC0001D1012341E07B6893F83D30DBB2002B4F
:102BDC0006D17B68002283F83C207868FEF7ACFEB7
:102BEC007B68022283F83D207B681A687B6804337B
:102BFC001946104600F01CFC7B68012283F8462025
:102C0C007B68012283F83E207B68012283F83F20F9
:102C1C007B68012283F840207B68012283F84120E5
:102C2C007B68012283F842207B68012283F84320D1
:102C3C007B68012283F844207B68012283F84520BD
:102C4C007B68012283F83D20002318460837BD46D7
:102C5C0080BD000080B485B000AF78607B6893F8CD
:102C6C003D30DBB2012B01D0012335E07B68022221
:102C7C0083F83D207B681B68DA687B681B6842F030
:102C8C000102DA607B681B68164A934209D07B68A4
:102C9C001B68B3F1804F04D07B681B68124A9342C7
:102CAC0011D17B681B689B6803F00703FB60FB6812
:102CBC00062B10D07B681B681A687B681B6842F077
:102CCC0001021A6007E07B681B681A687B681B6846
:102CDC0042F001021A60002318461437BD4680BC2E
:102CEC00704700BF002C01400004004080B582B04A
:102CFC0000AF78607B68002B01D1012341E07B6839
:102D0C0093F83D30DBB2002B06D17B68002283F8B0
:102D1C003C20786800F039F87B68022283F83D206B
:102D2C007B681A687B6804331946104600F080FBF8
:102D3C007B68012283F846207B68012283F83E20C1
:102D4C007B68012283F83F207B68012283F84020B6
:102D5C007B68012283F841207B68012283F84220A2
:102D6C007B68012283F843207B68012283F844208E
:102D7C007B68012283F845207B68012283F83D2083
:102D8C00002318460837BD4680BD80B483B000AF21
:102D9C00786000BF0C37BD4680BC704780B584B0EE
:102DAC0000AF786039603B68002B09D17B6893F8E1
:102DBC003E30DBB2012B14BF01230023DBB222E037
:102DCC003B68042B09D17B6893F83F30DBB2012BB5
:102DDC0014BF01230023DBB215E03B68082B09D19B
:102DEC007B6893F84030DBB2012B14BF0123002326
:102DFC00DBB208E07B6893F84130DBB2012B14BFE7
:102E0C0001230023DBB2002B01D0012359E03B68E6
:102E1C00002B04D17B68022283F83E2013E03B6830
:102E2C00042B04D17B68022283F83F200BE03B6823
:102E3C00082B04D17B68022283F8402003E07B68D6
:102E4C00022283F841207B681B68012239681846EE
:102E5C0000F064FD7B681B681C4A934207D17B68B9
:102E6C001B685A6C7B681B6842F400425A647B688E
:102E7C001B68164A934209D07B681B68B3F1804FDC
:102E8C0004D07B681B68124A934211D17B681B6883
:102E9C009B6803F00703FB60FB68062B10D07B6874
:102EAC001B681A687B681B6842F001021A6007E015
:102EBC007B681B681A687B681B6842F001021A6009
:102ECC00002318461037BD4680BD00BF002C0140C2
:102EDC000004004080B582B000AF78607B681B684E
:102EEC001B6903F00203022B22D17B681B68DB6891
:102EFC0003F00203022B1BD17B681B686FF00202EC
:102F0C001A617B6801221A777B681B689B6903F046
:102F1C000303002B03D0786800F06FFA05E07868A3
:102F2C0000F062FA786800F071FA7B6800221A7778
:102F3C007B681B681B6903F00403042B22D17B689C
:102F4C001B68DB6803F00403042B1BD17B681B6834
:102F5C006FF004021A617B6802221A777B681B6887
:102F6C009B6903F44073002B03D0786800F045FA9A
:102F7C0005E0786800F038FA786800F047FA7B686A
:102F8C0000221A777B681B681B6903F00803082B67
:102F9C0022D17B681B68DB6803F00803082B1BD16C
:102FAC007B681B686FF008021A617B6804221A7731
:102FBC007B681B68DB6903F00303002B03D0786884
:102FCC0000F01BFA05E0786800F00EFA786800F063
:102FDC001DFA7B6800221A777B681B681B6903F05B
:102FEC001003102B22D17B681B68DB6803F01003E5
:102FFC00102B1BD17B681B686FF010021A617B6869
:10300C0008221A777B681B68DB6903F44073002B7A
:10301C0003D0786800F0F1F905E0786800F0E4F985
:10302C00786800F0F3F97B6800221A777B681B68DC
:10303C001B6903F00103012B0ED17B681B68DB6855
:10304C0003F00103012B07D17B681B686FF00102B1
:10305C001A617868FEF726FC7B681B681B6903F015
:10306C008003802B0ED17B681B68DB6803F0800328
:10307C00802B07D17B681B686FF080021A6178681F
:10308C0000F0D1FC7B681B681B6903F04003402BEC
:10309C000ED17B681B68DB6803F04003402B07D123
:1030AC007B681B686FF040021A61786800F0B7F912
:1030BC007B681B681B6903F02003202B0ED17B68F7
:1030CC001B68DB6803F02003202B07D17B681B688F
:1030DC006FF020021A61786800F09CFC00BF083782
:1030EC00BD4680BD80B584B000AFF860B9607A6031
:1030FC00FB6893F83C30012B01D10223ACE0FB6858
:10310C00012283F83C207B680C2B00F29F8001A2EB
:10311C0052F823F055310008593200085932000892
:10312C00593200089531000859320008593200080C
:10313C0059320008D73100085932000859320008BA
:10314C005932000817320008FB681B68B96818462A
:10315C0000F0C6F9FB681B689A69FB681B6842F0B3
:10316C0008029A61FB681B689A69FB681B6822F06D
:10317C0004029A61FB681B689969BB681A69FB6851
:10318C001B680A439A6162E0FB681B68B9681846C1
:10319C0000F00CFAFB681B689A69FB681B6842F428
:1031AC0000629A61FB681B689A69FB681B6822F4D1
:1031BC0080629A61FB681B689969BB681B691A027B
:1031CC00FB681B680A439A6141E0FB681B68B9689D
:1031DC00184600F055FAFB681B68DA69FB681B6837
:1031EC0042F00802DA61FB681B68DA69FB681B684D
:1031FC0022F00402DA61FB681B68D969BB681A69A2
:10320C00FB681B680A43DA6121E0FB681B68B9683C
:10321C00184600F09FFAFB681B68DA69FB681B68AC
:10322C0042F40062DA61FB681B68DA69FB681B68B0
:10323C0022F48062DA61FB681B68D969BB681B6980
:10324C001A02FB681B680A43DA6100E000BFFB68E6
:10325C00002283F83C20002318461037BD4680BD61
:10326C0080B584B000AF786039607B6893F83C30EF
:10327C00012B01D10223B3E07B68012283F83C20AF
:10328C007B68022283F83D207B681B689B68FB608F
:10329C00FB6823F07703FB60FB6823F47F43FB6040
:1032AC007B681B68FA689A603B681B68B3F5005F23
:1032BC003ED0B3F5005F00F28780B3F5805F00F07D
:1032CC008580B3F5805F7FD8702B1AD0702B7BD89C
:1032DC00602B50D0602B77D8502B3CD0502B73D810
:1032EC00402B58D0402B6FD8302B64D0302B6BD860
:1032FC00202B60D0202B67D8002B5CD0102B5AD001
:10330C0062E07B6818683B6899683B685A683B6860
:10331C00DB6800F0E4FA7B681B689B68FB60FB6869
:10332C0043F07703FB607B681B68FA689A604EE099
:10333C007B6818683B6899683B685A683B68DB682F
:10334C0000F0CDFA7B681B689A687B681B6842F4B6
:10335C0080429A603BE07B6818683B6859683B6820
:10336C00DB681A4600F044FA7B681B68502118464B
:10337C0000F09BFA2BE07B6818683B6859683B6847
:10338C00DB681A4600F062FA7B681B6860211846FD
:10339C0000F08BFA1BE07B6818683B6859683B6847
:1033AC00DB681A4600F024FA7B681B68402118463B
:1033BC0000F07BFA0BE07B681A683B681B681946C7
:1033CC00104600F072FA02E000BF00E000BF7B681C
:1033DC00012283F83D207B68002283F83C200023E7
:1033EC0018461037BD4680BD80B483B000AF7860FE
:1033FC0000BF0C37BD4680BC704780B483B000AFB3
:10340C00786000BF0C37BD4680BC704780B483B079
:10341C0000AF786000BF0C37BD4680BC704780B4ED
:10342C0083B000AF786000BF0C37BD4680BC7047DE
:10343C0080B485B000AF786039607B681B68FB6036
:10344C007B68254A934207D07B68B3F1804F03D049
:10345C007B68224A934208D1FB6823F07003FB601F
:10346C003B685B68FA681343FB607B681A4A9342BB
:10347C0007D07B68B3F1804F03D07B68174A934227
:10348C0008D1FB6823F44073FB603B68DB68FA6887
:10349C001343FB60FB6823F080023B685B691343BA
:1034AC00FB607B68FA681A603B689A687B68DA6232
:1034BC003B681A687B689A627B68074A934203D11F
:1034CC003B681A697B681A637B6801225A6100BFEA
:1034DC001437BD4680BC7047002C014000040040EE
:1034EC0080B487B000AF786039607B681B6A23F0CA
:1034FC0001027B681A627B681B6A7B617B685B6874
:10350C003B617B689B69FB60FB6823F07003FB608D
:10351C00FB6823F00303FB603B681B68FA681343EA
:10352C00FB607B6923F002037B613B689B687A69D3
:10353C0013437B617B681C4A93420CD17B6923F05B
:10354C0008037B613B68DB687A6913437B617B69A9
:10355C0023F004037B617B68134A934211D13B69CE
:10356C0023F480733B613B6923F400733B613B683C
:10357C005B693A6913433B613B689B693A69134346
:10358C003B617B683A695A607B68FA689A613B6870
:10359C005A687B685A637B687A691A6200BF1C3769
:1035AC00BD4680BC704700BF002C014080B487B082
:1035BC0000AF786039607B681B6A23F010027B686F
:1035CC001A627B681B6A7B617B685B683B617B680A
:1035DC009B69FB60FB6823F4E043FB60FB6823F40E
:1035EC004073FB603B681B681B02FA681343FB606B
:1035FC007B6923F020037B613B689B681B017A6924
:10360C0013437B617B681D4A93420DD17B6923F088
:10361C0080037B613B68DB681B017A6913437B6128
:10362C007B6923F040037B617B68144A934213D17E
:10363C003B6923F480633B613B6923F400633B618A
:10364C003B685B699B003A6913433B613B689B6930
:10365C009B003A6913433B617B683A695A607B680B
:10366C00FA689A613B685A687B689A637B687A69E6
:10367C001A6200BF1C37BD4680BC7047002C01404D
:10368C0080B487B000AF786039607B681B6A23F424
:10369C0080727B681A627B681B6A7B617B685B68E3
:1036AC003B617B68DB69FB60FB6823F07003FB60AC
:1036BC00FB6823F00303FB603B681B68FA68134349
:1036CC00FB607B6923F400737B613B689B681B0286
:1036DC007A6913437B617B681D4A93420DD17B69E8
:1036EC0023F400637B613B68DB681B027A6913433C
:1036FC007B617B6923F480637B617B68144A934212
:10370C0013D13B6923F480533B613B6923F4005391
:10371C003B613B685B691B013A6913433B613B6846
:10372C009B691B013A6913433B617B683A695A6098
:10373C007B68FA68DA613B685A687B68DA637B6895
:10374C007A691A6200BF1C37BD4680BC704700BF47
:10375C00002C014080B487B000AF786039607B6882
:10376C001B6A23F480527B681A627B681B6A3B617C
:10377C007B685B687B617B68DB69FB60FB6823F4BF
:10378C00E043FB60FB6823F44073FB603B681B6801
:10379C001B02FA681343FB603B6923F400533B6143
:1037AC003B689B681B033A6913433B617B680F4A78
:1037BC00934209D17B6923F480437B613B685B694D
:1037CC009B017A6913437B617B687A695A607B68D9
:1037DC00FA68DA613B685A687B681A647B683A69F4
:1037EC001A6200BF1C37BD4680BC7047002C0140DC
:1037FC0080B487B000AFF860B9607A60FB681B6A70
:10380C007B61FB681B6A23F00102FB681A62FB6890
:10381C009B693B613B6923F0F0033B617B681B01B7
:10382C003A6913433B617B6923F00A037B617A6934
:10383C00BB6813437B61FB683A699A61FB687A69E0
:10384C001A6200BF1C37BD4680BC704780B487B07D
:10385C0000AFF860B9607A60FB681B6A23F0100255
:10386C00FB681A62FB689B697B61FB681B6A3B61A6
:10387C007B6923F470437B617B681B037A69134378
:10388C007B613B6923F0A0033B61BB681B013A6978
:10389C0013433B61FB687A699A61FB683A691A6267
:1038AC0000BF1C37BD4680BC704780B485B000AFEC
:1038BC00786039607B689B68FB60FB6823F0700361
:1038CC00FB603A68FB68134343F00703FB607B68BB
:1038DC00FA689A6000BF1437BD4680BC704780B44C
:1038EC0087B000AFF860B9607A603B60FB689B689A
:1038FC007B617B6923F47F437B613B681A027B68A5
:10390C001A43BB6813437A6913437B61FB687A697A
:10391C009A6000BF1C37BD4680BC704780B487B02E
:10392C0000AFF860B9607A60BB6803F01F03012236
:10393C0002FA03F37B61FB681A6A7B69DB431A406A
:10394C00FB681A62FB681A6ABB6803F01F0379688C
:10395C0001FA03F31A43FB681A6200BF1C37BD4619
:10396C0080BC704780B485B000AF786039607B68EC
:10397C0093F83C30012B01D1022341E07B680122FA
:10398C0083F83C207B68022283F83D207B681B680F
:10399C005B68FB607B681B689B68BB60FB6823F003
:1039AC007003FB603B681B68FA681343FB607B6821
:1039BC001B68FA685A607B681B68144A934209D0EA
:1039CC007B681B68B3F1804F04D07B681B68104A7E
:1039DC0093420CD1BB6823F08003BB603B685B68EF
:1039EC00BA681343BB607B681B68BA689A607B68D3
:1039FC00012283F83D207B68002283F83C200023C1
:103A0C0018461437BD4680BC704700BF002C0140DF
:103A1C000004004080B483B000AF786000BF0C3766
:103A2C00BD4680BC704780B483B000AF786000BFE7
:103A3C000C37BD4680BC704780B582B000AF786053
:103A4C007B68002B01D101233FE07B6893F83D306C
:103A5C00DBB2002B06D17B68002283F83C2078680F
:103A6C00FDF7D4FF7B68242283F83D207B681B681C
:103A7C00DA687B681B6822F40052DA60786800F020
:103A8C0025FC7B681B681A697B681B6822F49042D2
:103A9C001A617B681B685A697B681B6822F02A02D2
:103AAC005A617B681B68DA687B681B6842F40052B9
:103ABC00DA607B6800221A647B68202283F83D2040
:103ACC007B68202283F83E20002318460837BD4629
:103ADC0080BD80B58AB002AFF860B9603B60134618
:103AEC00FB8000237B61FB6893F83D30DBB2202B1D
:103AFC007CD1BB68002B02D0FB88002B01D10123A9
:103B0C0075E0FB6893F83C30012B01D102236EE089
:103B1C00FB68012283F83C20FB6800221A64FB68D6
:103B2C00212283F83D20FEF7B9F87861FB68FA880A
:103B3C009A84FB68FA88DA84FB689B68B3F5805F2B
:103B4C0008D1FB681B69002B04D10023FB61BB6807
:103B5C00BB6103E0BB68FB610023BB61FB68002217
:103B6C0083F83C202AE03B6800937B69002280218B
:103B7C00F86800F011FA0346002B01D0032336E05D
:103B8C00FB69002B0BD1BB691B881A46FB681B68B1
:103B9C00C2F308025A60BB690233BB6107E0FB69E0
:103BAC001A78FB681B685A60FB690133FB61FB6880
:103BBC00DB8C9BB2013B9AB2FB68DA84FB68DB8C32
:103BCC009BB2002BCFD13B6800937B690022402134
:103BDC00F86800F0E1F90346002B01D0032306E05E
:103BEC00FB68202283F83D20002300E002231846C6
:103BFC002037BD4680BD000080B58AB000AF78602C
:103C0C007B681B681B687B627B681B68DB683B629C
:103C1C007B681B685B69FB610023BB6100237B61D4
:103C2C007B6A03F00F03BB61BB69002B0DD17B6A70
:103C3C0003F02003002B08D03B6A03F02003002B79
:103C4C0003D0786800F099FA7BE1BB69002B00F097
:103C5C00B180FB6903F00103002B05D13B6A03F42F
:103C6C009073002B00F0A6807B6A03F00103002BFD
:103C7C000AD03B6A03F48073002B05D07B681B6C65
:103C8C0043F001027B681A647B6A03F00403002B87
:103C9C000AD0FB6903F00103002B05D07B681B6C79
:103CAC0043F002027B681A647B6A03F00203002B68
:103CBC000AD0FB6903F00103002B05D07B681B6C59
:103CCC0043F004027B681A647B6A03F00803002B40
:103CDC000FD03B6A03F02003002B04D1FB6903F0E7
:103CEC000103002B05D07B681B6C43F008027B683A
:103CFC001A647B681B6C002B00F01E817B6A03F03E
:103D0C002003002B07D03B6A03F02003002B02D0CA
:103D1C00786800F032FA7B681B685B6903F040033B
:103D2C00002B14BF01230023DBB27B617B681B6C6F
:103D3C0003F00803002B02D17B69002B31D078688B
:103D4C0000F074F97B681B685B6903F04003002B7F
:103D5C0023D07B681B685A697B681B6822F0400281
:103D6C005A617B689B6B002B13D07B689B6B764AEC
:103D7C005A637B689B6B1846FEF7E2F80346002BF0
:103D8C0016D07B689B6B5B6B7A68926B104698477E
:103D9C000EE0786800F0ECF80AE0786800F0E8F8DB
:103DAC0006E0786800F0E4F87B6800221A64C3E04F
:103DBC0000BFC1E07B681B6B012B40F0A1807B6ACC
:103DCC0003F01003002B00F09B803B6A03F0100300
:103DDC00002B00F095800023FB607B681B681B6840
:103DEC00FB607B681B685B68FB60FB687B681B681F
:103DFC005B6903F04003002B4ED07B689B6B1B6808
:103E0C005B683B823B8A002B00F098807B689B8D23
:103E1C003A8A9A4280F092807B683A8ADA857B688B
:103E2C009B6B9B69202B2BD07B681B68DA687B68AB
:103E3C001B6822F48072DA607B681B685A697B68A5
:103E4C001B6822F001025A617B681B685A697B6807
:103E5C001B6822F040025A617B68202283F83E20C6
:103E6C007B6800221A637B681B68DA687B681B68B6
:103E7C0022F01002DA607B689B6B1846FEF725F87F
:103E8C007B689A8D7B68DB8D9BB2D31A9BB21946EB
:103E9C00786800F076F851E07B689A8D7B68DB8D52
:103EAC009BB2D31A7B827B68DB8D9BB2002B47D0F5
:103EBC007B8A002B44D07B681B68DA687B681B68A4
:103ECC0022F49072DA607B681B685A697B681B6805
:103EDC0022F001025A617B68202283F83E207B6825
:103EEC0000221A637B681B68DA687B681B6822F007
:103EFC001002DA607B8A1946786800F042F81FE0FD
:103F0C007B6A03F08003002B08D03B6A03F080032C
:103F1C00002B03D0786800F0C9F812E07B6A03F03C
:103F2C004003002B0DD03B6A03F04003002B08D05C
:103F3C00786800F00AF904E000BF02E000BF00E07E
:103F4C0000BF2837BD4680BD9140000880B483B0C7
:103F5C0000AF786000BF0C37BD4680BC704780B4A2
:103F6C0083B000AF786000BF0C37BD4680BC704793
:103F7C0080B483B000AF786000BF0C37BD4680BC06
:103F8C00704780B483B000AF78600B467B8000BF75
:103F9C000C37BD4680BC704780B584B000AFF8606C
:103FAC00B9603B601346FB712CE0BB69B3F1FF3F7A
:103FBC0028D0BB69002B07D0FDF770FE02463B688A
:103FCC00D31ABA699A421DD2FB681B68DA68FB687F
:103FDC001B6822F4D072DA60FB681B685A69FB68B4
:103FEC001B6822F001025A61FB68202283F83D20F5
:103FFC00FB68202283F83E20FB68002283F83C20DB
:10400C0003230FE0FB681B681A68BB681340BA688F
:10401C009A420CBF01230023DBB21A46FB799A4269
:10402C00C3D0002318461037BD4680BD80B483B082
:10403C0000AF78607B681B68DA687B681B6822F4C9
:10404C009072DA607B681B685A697B681B6822F087
:10405C0001025A617B681B6B012B07D17B681B68C3
:10406C00DA687B681B6822F01002DA607B68202219
:10407C0083F83E207B6800221A6300BF0C37BD46D4
:10408C0080BC704780B584B000AF78607B685B6A99
:10409C00FB60FB680022DA85FB680022DA84F86892
:1040AC00FFF766FF00BF1037BD4680BD80B485B0FA
:1040BC0000AF78607B6893F83D30DBB2212B3ED1AA
:1040CC007B689B68B3F5805F14D17B681B69002B00
:1040DC0010D17B681B6AFB60FB681B881A467B68E7
:1040EC001B68C2F308025A607B681B6A9A1C7B68C7
:1040FC001A6208E07B681B6A591C7A6811621A788C
:10410C007B681B685A607B68DB8C9BB2013B9BB263
:10411C007A681946D184002B0FD17B681B68DA684A
:10412C007B681B6822F08002DA607B681B68DA68A7
:10413C007B681B6842F04002DA60002300E0022337
:10414C0018461437BD4680BC704780B582B000AFAE
:10415C0078607B681B68DA687B681B6822F0400219
:10416C00DA607B68202283F83D207868FFF7EEFE4A
:10417C00002318460837BD4680BD80B586B000AF19
:10418C0078607B6893F83E30DBB2222B40F099804C
:10419C007B689B68B3F5805F17D17B681B69002B2C
:1041AC0013D100237B617B689B6A3B617B681B6836
:1041BC005B689BB2C3F308039AB23B691A807B68B5
:1041CC009B6A9A1C7B689A6226E07B689B6A7B617F
:1041DC0000233B617B689B68B3F5805F07D07B68ED
:1041EC009B68002B0AD17B681B69002B06D17B686E
:1041FC001B685B68DAB27B691A7008E07B681B6825
:10420C005B68DBB203F07F03DAB27B691A707B6800
:10421C009B6A5A1C7B689A627B68DB8D9BB2013B64
:10422C009BB27A681946D185002B48D17B681B68F4
:10423C00DA687B681B6822F02002DA607B681B68F6
:10424C00DA687B681B6822F48072DA607B681B6812
:10425C005A697B681B6822F001025A617B68202234
:10426C0083F83E207B681B6B012B23D17B680022DB
:10427C001A637B681B68DA687B681B6822F0100283
:10428C00DA607B681B681B6803F01003102B0AD1E3
:10429C000023FB607B681B681B68FB607B681B68EA
:1042AC005B68FB60FB687B689B8D19467868FFF741
:1042BC0068FE02E07868FFF752FE002302E000235C
:1042CC0000E0022318461837BD4680BD80B584B087
:1042DC0000AF78607B681B681B6923F440517B68D6
:1042EC00DA687B681B680A431A617B689A687B688A
:1042FC001B691A437B685B691343BB607B681B6853
:10430C00DB6823F4B05323F00C037A681268B968A5
:10431C000B43D3607B681B685B6923F440717B683B
:10432C009A697B681B680A435A617B681B682C4A34
:10433C00934203D1FEF70CFCF86002E0FEF7F4FBAD
:10434C00F860FA6813469B0013449A001A447B6881
:10435C005B689B00B2FBF3F3224AA2FB03235B09CD
:10436C001901FA6813469B0013449A001A447B689F
:10437C005B689B00B2FBF3F21A4BA3FB02035B09D5
:10438C00642000FB03F3D31A1B013233154AA2FB42
:10439C0003235B0903F0F0031944FA6813469B00EE
:1043AC0013449A001A447B685B689B00B2FBF3F2DF
:1043BC000C4BA3FB02035B09642000FB03F3D31A31
:1043CC001B013233074AA2FB03235B0903F00F02E4
:1043DC007B681B680A449A6000BF1037BD4680BDDD
:1043EC00003801401F85EB51014B1868704700BF26
:1043FC000C00002070B500260C4D0D4C641BA41055
:10440C00A64209D100F06CFC00260A4D0A4C641B34
:10441C00A410A64205D170BD55F8043B984701364F
:10442C00EEE755F8043B98470136F2E70C4E0008CE
:10443C000C4E00080C4E0008104E0008024B0146B2
:10444C00186800F05FB800BF0C000020024B01465A
:10445C00186800F00BB800BF0C00002003460244A3
:10446C00934200D1704703F8011BF9E738B50546B4
:10447C00002943D051F8043C0C1F002BB8BFE418A2
:10448C0000F0CAF81E4A1368104633B96360146012
:10449C002846BDE8384000F0C5B8A3420AD92168C7
:1044AC006218934201BF1A685B68521822606360FD
:1044BC000460EDE71A465B680BB1A342FAD91168A8
:1044CC005018A0420BD1206801445018834211604F
:1044DC00DED118685B68014411605360D8E702D9DB
:1044EC000C232B60D4E7206821188B4201BF19687C
:1044FC005B680918216063605460C9E738BD00BF70
:10450C00F8000020F8B5CD1C25F0030508350C2D5E
:10451C0038BF0C25002D064601DBA94203D90C231C
:10452C0033600020F8BD00F077F821490A68144682
:10453C009CB9204F3B6823B92146304600F03CF82B
:10454C0038602946304600F037F8431C23D10C2341
:10455C003046336000F066F8E3E723685B1B17D442
:10456C000B2B03D923601C44256004E06368A24232
:10457C000CBF0B605360304600F054F804F10B0094
:10458C00231D20F00700C21ACCD01B1AA350C9E778
:10459C0022466468CCE7C41C24F00304A042E3D098
:1045AC00211A304600F008F80130DDD1CFE700BF0A
:1045BC00F8000020FC00002038B50023054D04460F
:1045CC0008462B60FDF7B0FA431C02D12B6803B1EF
:1045DC00236038BDF00100200EB46FF0004100B52F
:1045EC009CB01DAB029006900791049108480949B4
:1045FC0053F8042B0591006802A9019300F074F89C
:10460C000022029B1A701CB05DF804EB03B07047DB
:10461C000C0000200802FFFF014800F0FBBA00BFAD
:10462C00F8010020014800F0F6BA00BFF8010020A4
:10463C002DE9F0478E6882469E420C4690461F46F6
:10464C0038D88A8912F4906F32D025680969013301
:10465C00A5EB010965694B4405EB450505EBD575E3
:10466C006D109D4238BF1D46530531D52946FFF7C5
:10467C0049FF064650B90C234FF0FF30CAF8003002
:10468C00A38943F04003A381BDE8F0874A46216922
:10469C0000F0D0FAA38923F4906343F08003A38144
:1046AC0026614E4426603E466561A5EB0905A56072
:1046BC00BE4200D93E4632464146206800F0C8FA58
:1046CC00A36822689B1B32440020A3602260DBE7B6
:1046DC002A4600F0D7FA06460028E1D15046216957
:1046EC00FFF7C4FEC7E700002DE9F04F98468B8911
:1046FC0007461B060D4614469DB00ED50B6963B9D3
:10470C004021FFF7FFFE2860286120B90C233B6095
:10471C004FF0FF30D1E040236B610023099320233D
:10472C008DF8293030234FF00109CDF80C80DFF8DB
:10473C00A4818DF82A3023469A4613F8012B0AB12E
:10474C00252AF9D1BAEB040B0BD05B46224629463D
:10475C003846FFF76DFF013000F0AA80099A5A44E1
:10476C0009929AF80030002B00F0A28000234FF041
:10477C00FF32CDE905230AF1010A049307938DF862
:10478C0053301A935446052214F8011B514800F07B
:10479C0043FA049AD8B9D00644BF20238DF853307D
:1047AC00110744BF2B238DF853309AF800302A2B75
:1047BC0015D0544600204FF00A0C079A214611F8E8
:1047CC00013B303B092B4ED9B0B1079214E0A0EB62
:1047DC00080309FA03F31343A2460493D2E7039B9D
:1047EC00191D1B680391002BBBBF5B4242F00202F8
:1047FC0007930793B8BF049223782E2B0CD16378C0
:10480C002A2B35D1039B02341A1D1B680392002BF3
:10481C00B8BF4FF0FF330593DFF8C8A00322504612
:10482C00217800F0F9F940B14023A0EB0A0003FA1B
:10483C0000F0049B01340343049314F8011B06227B
:10484C0025488DF8281000F0E7F9002838D0234BC4
:10485C001BBB039B073323F0070308330393099B0C
:10486C003344099367E70C4601200CFB0232A5E7A1
:10487C0000234FF00A0C194601340593204610F81A
:10488C00012B303A092A03D9002BC5D00591C3E777
:10489C00044601230CFB0121F0E703AB00932A46ED
:1048AC0038460F4B04A9AFF30080421C0646D6D104
:1048BC00AB895B063FF52CAF09981DB0BDE8F08FB6
:1048CC0003AB00932A463846054B04A900F07CF84C
:1048DC00EBE700BFD84D0008E24D000800000000D7
:1048EC003D460008DE4D00082DE9F0471646994676
:1048FC008A680B6907469342B8BF1346336091F838
:10490C0043200C46DDF820800AB101333360236864
:10491C00990642BF336802333360256815F00605EB
:10492C0006D104F1190AE36832689B1AAB4228DC01
:10493C0094F84320131E226818BF012392062DD42D
:10494C004946384604F14302C047013020D0236861
:10495C00E56803F00603042B18BF002532684FF0FE
:10496C000006A36808BFAD1A226908BF25EAE575E1
:10497C009342C4BF9B1AED181A34B5421AD10020C9
:10498C0008E00123524649463846C047013003D15E
:10499C004FF0FF30BDE8F0870135C4E73020E11857
:1049AC0081F843005A1C94F845102244023382F8D3
:1049BC004310C5E70123224649463846C04701301B
:1049CC00E6D00136D9E700002DE9FF470C46277EDB
:1049DC009146782F80469A460C9904F1430207D8E9
:1049EC00622F0AD8002F00F0D980582F00F0A48035
:1049FC0004F1420684F842703AE0A7F16303152BE8
:104A0C00F6D801A050F823F06D4A0008814A00083E
:104A1C00FD490008FD490008FD490008FD49000852
:104A2C00814A0008FD490008FD490008FD490008BD
:104A3C00FD4900088F4B0008B14A0008714B000873
:104A4C00FD490008FD490008B14B0008FD4900086C
:104A5C00B14A0008FD490008FD490008794B0008DF
:104A6C000B6804F142061A1D1B680A6084F8423078
:104A7C000123A4E0256808682E0600F104030AD57A
:104A8C0005680B60002D03DA2D236D4284F843304A
:104A9C000A235E4819E015F0400F05680B6018BF3B
:104AAC002DB2EFE70B682568181D0860280601D5A4
:104ABC001D6802E06906FBD51D886F2F0CBF08230B
:104ACC000A235248002184F843106668002EA8BFC0
:104ADC002168A660A4BF21F0040121600DB9002E4D
:104AEC004DD01646B5FBF3F103FB1157C75D06F825
:104AFC00017D2F46BB420D46F4D9082B0BD1236800
:104B0C00DF0708D5236961689942DEBF302306F8B8
:104B1C00013C06F1FF36921B22614B462146404672
:104B2C00CDF800A003AAFFF7DFFE01304CD14FF007
:104B3C00FF3004B0BDE8F087344884F845700E6847
:104B4C00236856F8045B1F060E6014D5D90744BFC2
:104B5C0043F0200323601DB9236823F02003236056
:104B6C001023AFE7236843F0200323607823284801
:104B7C0084F84530E3E75E0648BFADB2E6E716467B
:104B8C00BBE70B6826681D1D60690D6035061B6848
:104B9C0001D5186002E07106FBD51880002316467B
:104BAC002361BAE70B681A1D0A601E6800213046A3
:104BBC00626800F031F808B1801B606063682361A3
:104BCC00002384F84330A8E732464946404623691F
:104BDC00D0470130ABD023689B0713D4E068039B0C
:104BEC009842B8BF1846A4E70123324649464046CE
:104BFC00D04701309BD00135E36803995B1AAB4277
:104C0C00F2DCEBE7002504F11906F5E7E94D0008A5
:104C1C00FA4D000870477047034610B5C9B20244FC
:104C2C009342184601D1002003E0047801338C42F2
:104C3C00F6D110BD0A44914200F1FF3300D1704708
:104C4C0010B511F8014B914203F8014FF9D110BD89
:104C5C00884210B501EB020402D98442234607D8DE
:104C6C00431EA14208D011F8012B03F8012FF8E7DD
:104C7C00014602448A4200D110BD13F8014D02F8DE
:104C8C00014DF7E7F8B5074614460E4621B9114613
:104C9C00BDE8F840FFF736BC22B9FFF7E7FB254625
:104CAC002846F8BD00F014F8A0420FD22146384631
:104CBC00FFF728FC05460028F2D031462246FFF7C4
:104CCC00B9FF31463846FFF7D1FBE9E73546E7E750
:104CDC0051F8043C181F002BBCBF0B58C018704770
:104CEC00F8B500BFF8BC08BC9E467047F8B500BFCD
:084CFC00F8BC08BC9E4670479D
:104D040025640D00252D2D2D2D2D2D2D2D2D2D2DF5
:104D14002D2D2D2D0D00000025733A2025640D0046
:104D2400477265656E2074696D65000000000000BF
:104D34000000000059656C6C6F772074696D650024
:104D440000000000000000004368616E6765207485
:104D54006F2025730D0000004175746F206D6F6422
:104D64006500000000000000000000004D616E7549
:104D7400616C206D6F64650000000000000000009D
:104D840054756E696E67206D6F64650000000000E5
:104D940000000000726F6164313A20256420726F54
:104DA4006164323A2025640D00000000020304050A
:104DB400060708090A0B0C0D0E0F10100000000066
:104DC40000000000010203040607080900000000B7
:104DD40001020304232D302B2000686C4C0065660F
:104DE4006745464700303132333435363738394138
:104DF400424344454600303132333435363738394E
:084E0400616263646566000051
:044E0C003101000868
:044E10000D01000888
:104E14000024F40010000000010000001000002035
:104E2400000000000000000000000000000000007E
:104E3400000000000000000000000000000000006E
:104E4400000000000000000000000000000000005E
:104E5400000000000000000000000000000000004E
:104E6400000000000000000000000000000000003E
:104E7400000000000000000000000000000000002E
:0400000508001BAD27
:00000001FF
