:020000040800F2
:10000000002800207D1400080D14000813140008B7
:10001000191400081F14000825140008000000002F
:100020000000000000000000000000002B14000889
:100030003714000800000000431400084F140008A3
:10004000C5140008C5140008C5140008C51400082C
:10005000C5140008C5140008C5140008C51400081C
:10006000C5140008C5140008C5140008C51400080C
:10007000C5140008C5140008C5140008C5140008FC
:10008000C5140008C5140008C5140008C5140008EC
:10009000C5140008C5140008C5140008C5140008DC
:1000A000C5140008C5140008C5140008C5140008CC
:1000B0005D140008C514000800000000C514000805
:1000C000C51400080000000000000000C51400086E
:1000D00000000000C5140008C5140008000000005E
:1000E000C5140008C5140008C5140008000000006D
:1000F0000000000000000000000000000000000000
:0C01000000000000000000005FF808F1A3
:10010C0010B5054C237833B9044B13B10448AFF345
:10011C0000800123237010BD14000020000000009B
:10012C00EC2A000808B5034B1BB103490348AFF395
:10013C00008008BD0000000018000020EC2A000818
:10014C0080B483B000AF7860074B1B687A6892FB71
:10015C00F3F3064A1360064B00221A6000BF0C37FB
:10016C00BD4680BC704700BF00000020340000205A
:10017C003000002080B483B000AF7860074B1B6860
:10018C007A6892FBF3F3064A1360064B00221A605E
:10019C0000BF0C37BD4680BC704700BF000000207C
:1001AC003C0000203800002080B483B000AF7860A1
:1001BC00074B1B687A6892FBF3F3064A1360064BF5
:1001CC0000221A6000BF0C37BD4680BC704700BFD0
:1001DC0000000020440000204000002080B483B0C8
:1001EC0000AF7860074B1B687A6892FBF3F3064A02
:1001FC001360064B00221A6000BF0C37BD4680BC52
:10020C00704700BF000000204C0000204800002078
:10021C0080B500AF0020FFF793FF00BF80BD80B515
:10022C0000AF0020FFF7A6FF00BF80BD80B500AF78
:10023C000020FFF7D3FF00BF80BD000080B400AFEB
:10024C00214B1B68002B0BDD1F4B1B68013B1E4A0F
:10025C0013601D4B1B68002B02DC1C4B01221A6027
:10026C001B4B1B68002B0BDD194B1B68013B184A01
:10027C001360174B1B68002B02DC164B01221A6013
:10028C00154B1B68002B0BDD134B1B68013B124AF3
:10029C001360114B1B68002B02DC104B01221A60FF
:1002AC000F4B1B68002B0BDD0D4B1B68013B0C4AE5
:1002BC0013600B4B1B68002B02DC0A4B01221A60EB
:1002CC0000BFBD4680BC70473400002030000020C9
:1002DC003C0000203800002044000020400000209A
:1002EC004C0000204800002080B582B000AF786040
:1002FC007B68092B00F2808101A252F823F000BF29
:10030C00350300087D030008C50300080D04000830
:10031C00550400089D040008E50400082D0500089C
:10032C0075050008BD05000800220121B54801F043
:10033C00C6FB00220221B34801F0C1FB00220421BC
:10034C00B04801F0BCFB00220821AE4801F0B7FB1D
:10035C0000221021AB4801F0B2FB00222021A94859
:10036C0001F0ADFB01224021A64801F0A8FB44E1BD
:10037C0001220121A34801F0A2FB00220221A14885
:10038C0001F09DFB002204219E4801F098FB012204
:10039C0008219C4801F093FB01221021994801F09F
:1003AC008EFB01222021974801F089FB012240217C
:1003BC00944801F084FB20E100220121914801F0D6
:1003CC007EFB002202218F4801F079FB01220421DF
:1003DC008C4801F074FB002208218A4801F06FFB65
:1003EC0000221021874801F06AFB01222021854858
:1003FC0001F065FB00224021824801F060FBFCE02B
:10040C00002201217F4801F05AFB002202217D4885
:10041C0001F055FB002204217A4801F050FB002228
:10042C000821784801F04BFB01221021754801F09E
:10043C0046FB01222021734801F041FB00224021A0
:10044C00704801F03CFBD8E0012201216D4801F01D
:10045C0036FB002202216B4801F031FB0022042103
:10046C00684801F02CFB01220821664801F027FBAB
:10047C0001221021634801F022FB00222021614857
:10048C0001F01DFB002240215E4801F018FBB4E096
:10049C00002201215B4801F012FB01220221594884
:1004AC0001F00DFB00220421564801F008FB00224C
:1004BC000821544801F003FB01221021514801F09E
:1004CC00FEFA002220214F4801F0F9FA00224021C7
:1004DC004C4801F0F4FA90E000220121494801F067
:1004EC00EEFA01220221474801F0E9FA0022042128
:1004FC00444801F0E4FA00220821424801F0DFFAF6
:10050C00002210213F4801F0DAFA002220213D4858
:10051C0001F0D5FA002240213A4801F0D0FA6CE003
:10052C0000220121374801F0CAFA00220221354885
:10053C0001F0C5FA00220421324801F0C0FA012270
:10054C000821304801F0BBFA012210212D4801F09E
:10055C00B6FA012220212B4801F0B1FA01224021E8
:10056C00284801F0ACFA48E000220121254801F0AE
:10057C00A6FA00220221234801F0A1FA002204214C
:10058C00204801F09CFA002208211E4801F097FA3D
:10059C00002210211B4801F092FA00222021194858
:1005AC0001F08DFA00224021164801F088FA24E06F
:1005BC0000220121134801F082FA00220221114885
:1005CC0001F07DFA002204210E4801F078FA002295
:1005DC0008210C4801F073FA01221021094801F09E
:1005EC006EFA00222021074801F069FA002240210E
:1005FC00044801F064FA00E000BF00BF0837BD46B4
:10060C0080BD00BF000C014080B582B000AF7860A7
:10061C007B68032B7ED801A252F823F03906000820
:10062C0073060008AD060008E706000800228021CA
:10063C003B4801F044FA01224FF48071384801F034
:10064C003EFA01224FF40071354801F038FA0122CC
:10065C004FF48061324801F032FA324B1B68184675
:10066C00FFF742FE57E0012280212D4801F027FAC6
:10067C0000224FF480712A4801F021FA01224FF434
:10068C000071274801F01BFA01224FF480612448C5
:10069C0001F015FA234B5B681846FFF725FE3AE08C
:1006AC00012280211E4801F00AFA01224FF48071C8
:1006BC001B4801F004FA00224FF40071184801F0B5
:1006CC00FEF901224FF48061154801F0F8F9154B41
:1006DC009B681846FFF708FE1DE001228021104898
:1006EC0001F0EDF901224FF480710D4801F0E7F9AA
:1006FC0001224FF400710A4801F0E1F900224FF495
:10070C008061074801F0DBF9064BDB681846FFF700
:10071C00EBFD00E000BF00BF0837BD4680BD00BF49
:10072C00000C01405000002080B400AF1A4B1B6835
:10073C001A4A82FB03129210DB17D31A184A136061
:10074C00154B1968154B83FB01239A10CB17D21A42
:10075C0013469B0013445B00CA1A114B5A60114B91
:10076C001B680E4A82FB03129210DB17D31A0C4A39
:10077C0093600C4B1968094B83FB01239A10CB1720
:10078C00D21A13469B0013445B00CA1A044BDA605E
:10079C0000BFBD4680BC704760000020676666667F
:1007AC00500000206400002080B500AFFFF7BCFFB4
:1007BC000D4B1B68012B15D10520FFF7F5FC0B4BDE
:1007CC001B680422934203DB084B00221A6004E0EE
:1007DC00064B1B680133054A1360044B1B68184613
:1007EC00FFF712FF00BF80BD400000206800002012
:1007FC0080B500AF094B1B68012B0CD16420FFF7AF
:10080C00EDFC074B1B68013B054A1360054B1B684D
:10081C00013B044A136000BF80BD00BF48000020AC
:10082C00600000206400002080B500AF0022012190
:10083C00074801F044F901220221054801F03FF973
:10084C0001220421024801F03AF900BF80BD00BF2B
:10085C000008014080B500AF01220121074801F0DA
:10086C002EF900220221054801F029F90122042168
:10087C00024801F024F900BF80BD00BF0008014010
:10088C0080B500AF01220121074801F018F90122BF
:10089C000221054801F013F900220421024801F05D
:1008AC000EF900BF80BD00BF0008014080B500AF4D
:1008BC0000220821074801F002F901221021054805
:1008CC0001F0FDF801222021024801F0F8F800BFE8
:1008DC0080BD00BF0008014080B500AF0122082197
:1008EC00074801F0ECF800221021054801F0E7F868
:1008FC0001222021024801F0E2F800BF80BD00BFB8
:10090C000008014080B500AF01220821074801F022
:10091C00D6F801221021054801F0D1F8002220213F
:10092C00024801F0CCF800BF80BD00BF00080140B8
:10093C0080B500AF154B1B68012B25D100F09AF840
:10094C00134B1B681846FFF715FC124B1B68002B4A
:10095C000DD101220121104801F0B1F8012208212A
:10096C000D4801F0ACF80B4B01221A600CE0002290
:10097C000121094801F0A3F800220821064801F0E2
:10098C009EF8044B00221A6000BF80BD3800002086
:10099C00040000206C0000200008014080B500AF6E
:1009AC00154B1B68012B25D100F064F8134B1B6809
:1009BC001846FFF7DFFB124B1B68002B0DD10122F1
:1009CC000221104801F07BF8012210210D4801F0A2
:1009DC0076F80B4B01221A600CE000220221094828
:1009EC0001F06DF800221021064801F068F8044B64
:1009FC0000221A6000BF80BD3800002004000020D7
:100A0C006C0000200008014080B500AF154B1B683E
:100A1C00012B25D100F02EF8134B1B681846FFF75D
:100A2C00A9FB124B1B68002B0DD10122042110488D
:100A3C0001F045F8012220210D4801F040F80B4B44
:100A4C0001221A600CE000220421094801F037F859
:100A5C0000222021064801F032F8044B00221A60D3
:100A6C0000BF80BD38000020040000206C00002076
:100A7C000008014080B500AF012208210E4801F0AA
:100A8C001EF8012210210C4801F019F80122202136
:100A9C00094801F014F801220121074801F00FF870
:100AAC0001220221044801F00AF801220421024823
:100ABC0001F005F800BF80BD0008014080B500AF13
:100ACC00964B1B68042B00F21E8101A252F823F0F6
:100ADC00F10A0008A30B00081F0C00089D0C00086D
:100AEC00270B00080A20FFF779FB8C4B04221A60B5
:100AFC008B4B1B688B4A82FB03125211DB17D31AE8
:100B0C00894A1360894B1B68864A82FB0312521177
:100B1C00DB17D31A864A1360FEE0864B1B68012B49
:100B2C0022D1844B00221A607C4B01221A607F4B2D
:100B3C001B681846FFF704FBFFF776FEFFF7CCFEA9
:100B4C00774B1B68774A82FB03125211DB17D31ABF
:100B5C00754A1360754B1B68724A82FB0312521163
:100B6C00DB17D31A724A1360734B1B68012B40F0CE
:100B7C00CC806A4B15221A60FFF74AFB1920FFF74D
:100B8C00F9FA6D4B00221A60654B1B686B4A1360B7
:100B9C00FFF74CFBB9E0674B1B68012B22D1654B6F
:100BAC0000221A605D4B02221A60654B1B681846C6
:100BBC00FFF7C6FAFFF738FEFFF7A4FE604B1B6881
:100BCC00584A82FB03125211DB17D31A564A136090
:100BDC005B4B1B68534A82FB03125211DB17D31A6F
:100BEC00534A1360544B1B68012B40F090804B4BC5
:100BFC0015221A60FFF70CFB1920FFF7BBFA4E4BBE
:100C0C0000221A60464B1B684C4A1360FFF70EFB20
:100C1C007DE0484B1B68012B22D1464B00221A6009
:100C2C003E4B03221A60414B1B681846FFF788FAAB
:100C3C00FFF710FEFFF73AFE3C4B1B68394A82FB6C
:100C4C0003125211DB17D31A374A1360344B1B684B
:100C5C00344A82FB03125211DB17D31A344A136045
:100C6C00354B1B68012B54D12C4B15221A60FFF706
:100C7C00CFFA344B1B681846FFF77CFA2E4B002238
:100C8C001A60274B1B682D4A1360FFF7CFFA40E020
:100C9C00284B1B68012B20D1264B00221A601F4BBE
:100CAC0004221A60264B1B681846FFF749FAFFF717
:100CBC00E7FD234B1B681B4A82FB03125211DB1707
:100CCC00D31A194A13601E4B1B68164A82FB031277
:100CDC005211DB17D31A164A1360174B1B68012BE2
:100CEC0019D10E4B15221A60FFF792FA1920FFF753
:100CFC0041FA114B00221A60094B1B680F4A136012
:100D0C00FFF794FA07E000BF06E000BF04E000BF65
:100D1C0002E000BF00E000BF00BF80BD88000020E3
:100D2C00700000201F85EB5160000020780000202F
:100D3C006400002030000020A40000207C00002073
:100D4C00740000200400002080B500AF724B1B68BB
:100D5C00172B00F09480172B00F3D480152B02D0A6
:100D6C00162B4DD0CEE0FFF7E3FD6C4B1B686C4AA5
:100D7C0082FB03125211DB17D31A6A4A13606A4BB7
:100D8C0000221A60694B1B68012B09D1624B162299
:100D9C001A60664B00221A60654B1B68654A13602B
:100DAC00624B5B68012B1AD1604B00225A605B4B83
:100DBC001B6842F2AB62934202DD584B00221A6070
:100DCC00564B1B686433554A1360544B1B68544A8A
:100DDC0082FB03125211DB17D31A524A1360534B86
:100DEC009B68012B40F09080504B00229A604B4B3B
:100DFC001B68184600F0A4F84A4B09221A6083E0DD
:100E0C00FFF702FE4B4B1B68454A82FB0312521143
:100E1C00DB17D31A434A1360434B01221A60434B2E
:100E2C001B68012B09D13C4B17221A603F4B002247
:100E3C001A60414B1B68414A13603C4B5B68012BA9
:100E4C0010D13A4B00225A603A4B1B6842F2AB620B
:100E5C00934202DD374B00221A60364B1B68643319
:100E6C00344A1360314B9B68012B4FD12F4B00221E
:100E7C009A60324B1B68184600F070F846E0FFF79A
:100E8C008DFD2E4B1B68264A82FB03125211DB1779
:100E9C00D31A244A1360244B02221A60234B1B687A
:100EAC00012B0DD11C4B00221A60204B00221A6022
:100EBC00FFF7B5F90A20FFF743F96420FFF78EF925
:100ECC001A4B5B68012B10D1184B00225A601B4B3C
:100EDC001B6842F2AB62934202DD184B00221A608F
:100EEC00164B1B686433154A1360104B9B68012B1F
:100EFC000ED10E4B00229A60104B1B68184600F066
:100F0C002DF805E000BF04E000BF02E000BF00E0E8
:100F1C0000BF00BF80BD00BF880000207C00002007
:100F2C001F85EB516000002064000020A40000200D
:100F3C007400002084000020780000208000002035
:100F4C0080B483B000AF7860034A7B68136000BF45
:100F5C000C37BD4680BC70477000002080B483B055
:100F6C0000AF7860034A7B68136000BF0C37BD4646
:100F7C0080BC70477800002080B483B000AF03467B
:100F8C00FB71FB79044A012142F8231000BF0C3796
:100F9C00BD4680BC704700BFA400002090B583B054
:100FAC0000AF0023FB7186E0FA79FB794649895C36
:100FBC00464AD154FA79FB794549895C424AD15465
:100FCC00FB79022B1AD0022B23DC002B02D0012B35
:100FDC000AD01EE0FC7940213E4800F059FD034642
:100FEC001A463B4B1A5519E0FC798021394800F020
:100FFC004FFD03461A46364B1A550FE0FC794FF459
:10100C008071344800F044FD03461A46304B1A55A3
:10101C0004E0FB792E4A0121D15400BFFB792B4A05
:10102C00D25CFB792849CB5C9A4241D1FB79264AA8
:10103C00D25CFB792649CB5C9A4239D1FB79264AA2
:10104C00D25CFB792249CB5C9A4214D0FA79FB79B9
:10105C001F49895C204AD154FB791F4AD35C002B71
:10106C0026D1FB791D4A642122F81310FB7918460E
:10107C00FFF782FF1CE0FB79184A32F81320013A83
:10108C0091B2164A22F81310FB79144A32F8133035
:10109C00002B0DD1FB79104AD35C002B08D1FB79C6
:1010AC000E4A642122F81310FB791846FFF764FFEF
:1010BC00FB790133FB71FB79022B7FF675AF00BF17
:1010CC0000BF0C37BD4690BD94000020900000205E
:1010DC0098000020000801408C0000209C0000209B
:1010EC0080B500AF00F0EAF900F034F800F0BAF87F
:1010FC0000F06CF800F0B6F8114801F031F9114B22
:10110C0000221A600A20FFF71BF80A20FFF732F8BA
:10111C000A20FFF749F80C4B4FF4FA721A600B4B8C
:10112C004FF496721A600A4BC8221A60FFF7C6FC7D
:10113C00FFF70AFEFFF738FBFFF75AFBF6E700BF95
:10114C00B0000020880000207000002078000020F3
:10115C007400002080B590B000AF07F1180328226E
:10116C000021184601F0B4FC3B1D00221A605A60A5
:10117C009A60DA601A610223BB610123BB621023FF
:10118C00FB6200237B6307F11803184600F0B0FCE8
:10119C000346002B01D000F0D8F80F237B6000230E
:1011AC00BB600023FB6000233B6100237B613B1D84
:1011BC000021184600F01CFF0346002B01D000F064
:1011CC00C4F800BF4037BD4680BD000080B586B076
:1011DC0000AF07F1080300221A605A609A60DA60C7
:1011EC003B4600221A605A601D4B4FF080421A6039
:1011FC001B4B41F63F725A60194B00229A60184BF8
:10120C000922DA60164B00221A61154B00229A61F2
:10121C00134801F055F80346002B01D000F095F867
:10122C004FF48053BB6007F1080319460C4801F0DA
:10123C00EBF90346002B01D000F087F800233B604C
:10124C0000237B603B461946054801F0B3FB03467F
:10125C00002B01D000F079F800BF1837BD4680BDD7
:10126C00B000002080B586B000AF07F10803002263
:10127C001A605A609A60DA60284B9B69274A43F0DF
:10128C0004039361254B9B6903F004037B607B682B
:10129C00224B9B69214A43F0080393611F4B9B69C6
:1012AC0003F008033B603B6800223F211C4800F020
:1012BC0006FC002243F6FF711A4800F000FC3F23A5
:1012CC00BB600123FB6000233B6102237B6107F1C0
:1012DC0008031946124800F061FA4FF4E073BB6042
:1012EC000023FB6001233B6107F1080319460C48FE
:1012FC0000F054FA43F6FF73BB600123FB6000233C
:10130C003B6102237B6107F108031946054800F095
:10131C0045FA00BF1837BD4680BD00BF0010024023
:10132C0000080140000C014080B582B000AF78602D
:10133C007B681B68B3F1804F03D1FEF77FFFFFF78B
:10134C002DFE00BF0837BD4680BD80B400AF72B61D
:10135C0000BFFEE780B485B000AF154B9B69144A03
:10136C0043F001039361124B9B6903F00103BB60D3
:10137C00BB680F4BDB690E4A43F08053D3610C4BB7
:10138C00DB6903F080537B607B680A4B5B68FB6016
:10139C00FB6823F0E063FB60FB6843F08063FB6059
:1013AC00044AFB68536000BF1437BD4680BC7047CD
:1013BC00001002400000014080B584B000AF78609E
:1013CC007B681B68B3F1804F13D10C4BDB690B4A64
:1013DC0043F00103D361094BDB6903F00103FB60AC
:1013EC00FB68002200211C2000F0A1F91C2000F059
:1013FC00BAF900BF1037BD4680BD00BF00100240D7
:10140C0080B400AFFEE780B400AFFEE780B400AF5D
:10141C00FEE780B400AFFEE780B400AFFEE780B417
:10142C0000AF00BFBD4680BC704780B400AF00BFAA
:10143C00BD4680BC704780B400AF00BFBD4680BCC9
:10144C00704780B500AF00F07FF800BF80BD000092
:10145C0080B500AF024800F0CFFF00BF80BD00BFD9
:10146C00B000002080B400AF00BFBD4680BC704708
:10147C000C480D490D4A002302E0D458C4500433E3
:10148C00C4188C42F9D30A4A0A4C002301E01360B9
:10149C000432A242FBD3FFF7E5FF01F0F5FAFFF7A8
:1014AC001FFE704700000020140000202C2B0008A9
:1014BC0014000020FC000020FEE7000080B500AF07
:1014CC00084B1B68074A43F010031360032000F01D
:1014DC0023F90F2000F008F8FFF73CFF0023184613
:1014EC0080BD00BF0020024080B582B000AF7860A4
:1014FC00124B1A68124B1B7819464FF47A73B3FBD4
:10150C00F1F3B2FBF3F3184600F03BF90346002B62
:10151C0001D001230EE07B680F2B0AD800227968DA
:10152C004FF0FF3000F003F9064A7B68136000238C
:10153C0000E0012318460837BD4680BD0800002096
:10154C00100000200C00002080B400AF054B1B786D
:10155C001A46054B1B681344034A136000BFBD4673
:10156C0080BC704710000020F800002080B400AF51
:10157C00024B1B681846BD4680BC7047F800002023
:10158C0080B485B000AF78607B6803F00703FB6024
:10159C000C4BDB68BB60BA684FF6FF031340BB60B3
:1015AC00FB681A02BB68134343F0BF6343F4003378
:1015BC00BB60044ABB68D36000BF1437BD4680BC17
:1015CC00704700BF00ED00E080B400AF044BDB6857
:1015DC001B0A03F007031846BD4680BC704700BFCA
:1015EC0000ED00E080B483B000AF0346FB7197F9C7
:1015FC000730002B0BDBFB7903F01F02064997F930
:10160C0007305B09012000FA02F241F8232000BFE9
:10161C000C37BD4680BC704700E100E080B483B05D
:10162C0000AF03463960FB7197F90730002B0ADBDA
:10163C003B68DAB20C4997F907301201D2B20B446D
:10164C0083F800230AE03B68DAB20849FB7903F01F
:10165C000F03043B1201D2B20B441A7600BF0C37B5
:10166C00BD4680BC704700BF00E100E000ED00E02B
:10167C0080B489B000AFF860B9607A60FB6803F0A1
:10168C000703FB61FB69C3F10703042B28BF042389
:10169C00BB61FB690433062B02D9FB69033B00E0F9
:1016AC0000237B614FF0FF32BB6902FA03F3DA438C
:1016BC00BB681A407B699A404FF0FF317B6901FA95
:1016CC0003F3D9437B680B40134318462437BD46BC
:1016DC0080BC704780B582B000AF78607B68013BFE
:1016EC00B3F1807F01D301230FE00A4A7B68013BF1
:1016FC0053600F214FF0FF30FFF790FF054B002296
:10170C009A60044B07221A60002318460837BD461E
:10171C0080BD00BF10E000E080B582B000AF786003
:10172C007868FFF72DFF00BF0837BD4680BD80B538
:10173C0086B000AF0346B9607A60FB7300237B610F
:10174C00FFF742FF78617A68B9687869FFF790FF14
:10175C00024697F90F3011461846FFF75FFF00BF9E
:10176C001837BD4680BD80B582B000AF0346FB7113
:10177C0097F907301846FFF735FF00BF0837BD460D
:10178C0080BD80B582B000AF78607868FFF7A2FFAB
:10179C00034618460837BD4680BD000080B48BB0A8
:1017AC0000AF7860396000237B6200233B6248E124
:1017BC0001227B6A02FA03F3FB613B681B68FA693E
:1017CC001340BB61BA69FB699A4240F037813B68B0
:1017DC005B68A34A93425ED0A14A934275D8A14A52
:1017EC00934258D09F4A93426FD89F4A934252D00B
:1017FC009D4A934269D89D4A93424CD09B4A93424E
:10180C0063D89B4A934246D0994A93425DD8122B97
:10181C002AD8122B59D801A252F823F0A318000889
:10182C007D1800088F180008D1180008D718000878
:10183C00D7180008D7180008D7180008D7180008C0
:10184C00D7180008D7180008D7180008D7180008B0
:10185C00D7180008D7180008D7180008D7180008A0
:10186C008518000899180008824A934213D02CE07E
:10187C003B68DB683B6229E03B68DB6804333B6216
:10188C0024E03B68DB6808333B621FE03B68DB68A5
:10189C000C333B621AE03B689B68002B02D104239B
:1018AC003B6213E03B689B68012B05D108233B622C
:1018BC007B68FA691A6109E008233B627B68FA6964
:1018CC005A6103E000233B6200E000BFBB69FF2BC1
:1018DC0001D87B6801E07B6804337B61BB69FF2B1B
:1018EC0002D87B6A9B0002E07B6A083B9B003B6151
:1018FC007B691A680F213B6901FA03F3DB431A4039
:10190C00396A3B6901FA03F31A437B691A603B6835
:10191C005B6803F08053002B00F09080564B9B6962
:10192C00554A43F001039361534B9B6903F0010348
:10193C00BB60BB68514A7B6A9B08023352F8233068
:10194C00FB607B6A03F003039B000F2202FA03F394
:10195C00DB43FA681340FB607B68494A93420DD025
:10196C007B68484A934207D07B68474A934201D12F
:10197C00022304E0032302E0012300E000237A6A3F
:10198C0002F0030292009340FA681343FB603B4958
:10199C007B6A9B080233FA6841F823203B685B683A
:1019AC0003F48033002B06D0384B1A683749BB69D7
:1019BC0013430B6006E0354B1A68BB69DB433349B4
:1019CC0013400B603B685B6803F40033002B06D0BC
:1019DC002E4B5A682D49BB6913434B6006E02B4BC9
:1019EC005A68BB69DB43294913404B603B685B6811
:1019FC0003F48013002B06D0244B9A682349BB694F
:101A0C0013438B6006E0214B9A68BB69DB431F498B
:101A1C0013408B603B685B6803F40013002B06D00B
:101A2C001A4BDA681949BB691343CB6006E0174BB4
:101A3C00DA68BB69DB4315491340CB607B6A013321
:101A4C007B623B681A687B6A22FA03F3002B7FF4F3
:101A5C00AFAE00BF00BF2C37BD4680BC704700BF87
:101A6C000000321000003110000022100000211084
:101A7C000000121000001110001002400000014084
:101A8C0000080140000C014000100140000401401E
:101A9C0080B485B000AF78600B467B807B689A6819
:101AAC007B881340002B02D00123FB7301E0002341
:101ABC00FB73FB7B18461437BD4680BC704780B463
:101ACC0083B000AF78600B467B8013467B707B78CD
:101ADC00002B03D07A887B681A6103E07B881A0498
:101AEC007B681A6100BF0C37BD4680BC7047000094
:101AFC0080B586B000AF78607B68002B01D10123E4
:101B0C006CE27B681B6803F00103002B00F08780FC
:101B1C00924B5B6803F00C03042B0CD08F4B5B686F
:101B2C0003F00C03082B12D18C4B5B6803F480334D
:101B3C00B3F5803F0BD1894B1B6803F40033002BAA
:101B4C006CD07B685B68002B68D1012346E27B6814
:101B5C005B68B3F5803F06D1804B1B687F4A43F42A
:101B6C00803313602EE07B685B68002B0CD17B4BC1
:101B7C001B687A4A23F480331360784B1B68774ACE
:101B8C0023F4802313601DE07B685B68B3F5A02F02
:101B9C000CD1724B1B68714A43F4802313606F4B5A
:101BAC001B686E4A43F4803313600BE06B4B1B686D
:101BBC006A4A23F480331360684B1B68674A23F42A
:101BCC00802313607B685B68002B13D0FFF7CEFC7F
:101BDC00386108E0FFF7CAFC02463B69D31A642B54
:101BEC0001D90323FAE15D4B1B6803F40033002B8E
:101BFC00F0D014E0FFF7BAFC386108E0FFF7B6FC50
:101C0C0002463B69D31A642B01D90323E6E1534BFB
:101C1C001B6803F40033002BF0D100E000BF7B689D
:101C2C001B6803F00203002B63D04C4B5B6803F082
:101C3C000C03002B0BD0494B5B6803F00C03082BF7
:101C4C001CD1464B5B6803F48033002B16D1434BFD
:101C5C001B6803F00203002B05D07B681B69012B6A
:101C6C0001D00123BAE13D4B1B6823F0F8027B68DD
:101C7C005B69DB00394913430B603AE07B681B69F5
:101C8C00002B20D0364B01221A60FFF76FFC386115
:101C9C0008E0FFF76BFC02463B69D31A022B01D913
:101CAC0003239BE12D4B1B6803F00203002BF0D0A8
:101CBC002A4B1B6823F0F8027B685B69DB00274921
:101CCC0013430B6015E0264B00221A60FFF74EFC05
:101CDC00386108E0FFF74AFC02463B69D31A022B35
:101CEC0001D903237AE11D4B1B6803F00203002B7F
:101CFC00F0D17B681B6803F00803002B3AD07B689B
:101D0C009B69002B19D0174B01221A60FFF72EFC90
:101D1C00386108E0FFF72AFC02463B69D31A022B14
:101D2C0001D903235AE10D4B5B6A03F00203002B2C
:101D3C00F0D0012000F0A6FA1CE00A4B00221A6039
:101D4C00FFF714FC38610FE0FFF710FC02463B690B
:101D5C00D31A022B08D9032340E100BF0010024024
:101D6C0000004242800442429E4B5B6A03F0020335
:101D7C00002BE9D17B681B6803F00403002B00F0F7
:101D8C00A6800023FB75974BDB6903F08053002B77
:101D9C000DD1944BDB69934A43F08053D361914B43
:101DAC00DB6903F08053BB60BB680123FB758E4B72
:101DBC001B6803F48073002B18D18B4B1B688A4A69
:101DCC0043F480731360FFF7D1FB386108E0FFF731
:101DDC00CDFB02463B69D31A642B01D90323FDE0EA
:101DEC00814B1B6803F48073002BF0D07B68DB689D
:101DFC00012B06D17B4B1B6A7A4A43F00103136219
:101E0C002DE07B68DB68002B0CD1764B1B6A754A86
:101E1C0023F001031362734B1B6A724A23F0040311
:101E2C0013621CE07B68DB68052B0CD16D4B1B6AC5
:101E3C006C4A43F0040313626A4B1B6A694A43F011
:101E4C00010313620BE0674B1B6A664A23F0010324
:101E5C001362644B1B6A634A23F0040313627B68AE
:101E6C00DB68002B15D0FFF781FB38610AE0FFF728
:101E7C007DFB02463B69D31A41F28832934201D969
:101E8C000323ABE0574B1B6A03F00203002BEED08D
:101E9C0014E0FFF76BFB38610AE0FFF767FB0246C3
:101EAC003B69D31A41F28832934201D9032395E05E
:101EBC004C4B1B6A03F00203002BEED1FB7D012B74
:101ECC0005D1484BDB69474A23F08053D3617B68CB
:101EDC00DB69002B00F08180424B5B6803F00C0344
:101EEC00082B61D07B68DB69022B46D13F4B00226B
:101EFC001A60FFF73BFB386108E0FFF737FB02463F
:101F0C003B69D31A022B01D9032367E0354B1B68BD
:101F1C0003F00073002BF0D17B681B6AB3F5803F94
:101F2C0008D1304B5B6823F400327B689B682D49E9
:101F3C0013434B602B4B5B6823F474127B68196A58
:101F4C007B685B6A0B43274913434B60274B012289
:101F5C001A60FFF70BFB386108E0FFF707FB02463E
:101F6C003B69D31A022B01D9032337E01D4B1B68A5
:101F7C0003F00073002BF0D02FE01C4B00221A60F2
:101F8C00FFF7F4FA386108E0FFF7F0FA02463B6914
:101F9C00D31A022B01D9032320E0124B1B6803F048
:101FAC000073002BF0D118E07B68DB69012B01D1A9
:101FBC00012313E00B4B5B68FB60FB6803F480327E
:101FCC007B681B6A9A4206D1FB6803F470127B682B
:101FDC005B6A9A4201D0012300E0002318461837AF
:101FEC00BD4680BD001002400070004060004242BF
:101FFC0080B584B000AF786039607B68002B01D16C
:10200C000123D0E06A4B1B6803F007033A689A423D
:10201C0010D9674B1B6823F0070265493B681343D3
:10202C000B60634B1B6803F007033A689A4201D0BC
:10203C000123B8E07B681B6803F00203002B20D05F
:10204C007B681B6803F00403002B05D0594B5B68BD
:10205C00584A43F4E06353607B681B6803F0080341
:10206C00002B05D0534B5B68524A43F460535360CA
:10207C00504B5B6823F0F0027B689B684D4913431F
:10208C004B607B681B6803F00103002B40D07B681E
:10209C005B68012B07D1474B1B6803F40033002B03
:1020AC0015D101237FE07B685B68022B07D1414B84
:1020BC001B6803F00073002B09D1012373E03D4B27
:1020CC001B6803F00203002B01D101236BE0394B99
:1020DC005B6823F003027B685B68364913434B60F3
:1020EC00FFF744FAF8600AE0FFF740FA0246FB6893
:1020FC00D31A41F28832934201D9032353E02D4B7A
:10210C005B6803F00C027B685B689B009A42EBD126
:10211C00274B1B6803F007033A689A4210D2244BF2
:10212C001B6823F0070222493B6813430B60204BCA
:10213C001B6803F007033A689A4201D0012332E08E
:10214C007B681B6803F00403002B08D0194B5B68F9
:10215C0023F4E0627B68DB68164913434B607B68B1
:10216C001B6803F00803002B09D0124B5B6823F4A7
:10217C0060527B681B69DB000E4913434B6000F017
:10218C0021F802460B4B5B681B0903F00F030A494D
:10219C00CB5C22FA03F3094A1360094B1B681846FF
:1021AC00FFF7A2F9002318461037BD4680BD00BFCB
:1021BC000020024000100240142B000808000020F0
:1021CC000C00002090B48AB000AF2A4B3C1D0FCB02
:1021DC0084E80F0040F201233B800023FB610023C5
:1021EC00BB6100237B6200237B6100233B62224B9B
:1021FC005B68FB61FB6903F00C03042B02D0082B1A
:10220C0003D02DE01D4B3B622DE0FB699B0C03F0D2
:10221C000F0307F12802134413F8243C7B61FB697C
:10222C0003F48033002B13D0134B5B685B0C03F06F
:10223C00010307F12802134413F8283CBB617B69A6
:10224C000E4A02FB03F2BB69B2FBF3F37B6204E0C0
:10225C007B690B4A02FB03F37B627B6A3B6202E005
:10226C00064B3B6200BF3B6A18462837BD4690BC04
:10227C00704700BF042B00080010024000127A00C7
:10228C0000093D0080B485B000AF78600A4B1B6834
:10229C000A4AA2FB03235B0A7A6802FB03F3FB6086
:1022AC0000BFFB685A1EFA60002BF9D100BF00BFBB
:1022BC001437BD4680BC704708000020D34D621017
:1022CC0080B582B000AF78607B68002B01D1012310
:1022DC0041E07B6893F83D30DBB2002B06D17B6884
:1022EC00002283F83C207868FFF766F87B680222AE
:1022FC0083F83D207B681A687B68043319461046C6
:10230C0000F06AFA7B68012283F846207B68012280
:10231C0083F83E207B68012283F83F207B680122F2
:10232C0083F840207B68012283F841207B680122DE
:10233C0083F842207B68012283F843207B680122CA
:10234C0083F844207B68012283F845207B680122B6
:10235C0083F83D20002318460837BD4680BD000099
:10236C0080B485B000AF78607B6893F83D30DBB209
:10237C00012B01D0012335E07B68022283F83D203C
:10238C007B681B68DA687B681B6842F00102DA60C4
:10239C007B681B68164A934209D07B681B68B3F1B3
:1023AC00804F04D07B681B68124A934211D17B6822
:1023BC001B689B6803F00703FB60FB68062B10D0BF
:1023CC007B681B681A687B681B6842F001021A6004
:1023DC0007E07B681B681A687B681B6842F0010287
:1023EC001A60002318461437BD4680BC704700BFE6
:1023FC00002C01400004004080B582B000AF786032
:10240C007B681B681B6903F00203022B22D17B68DB
:10241C001B68DB6803F00203022B1BD17B681B6873
:10242C006FF002021A617B6801221A777B681B68C5
:10243C009B6903F00303002B03D0786800F0B1F91B
:10244C0005E0786800F0A4F9786800F0B3F97B68CF
:10245C0000221A777B681B681B6903F00403042BAA
:10246C0022D17B681B68DB6803F00403042B1BD1AF
:10247C007B681B686FF004021A617B6802221A7772
:10248C007B681B689B6903F44073002B03D078684E
:10249C0000F087F905E0786800F07AF9786800F0C8
:1024AC0089F97B6800221A777B681B681B6903F02B
:1024BC000803082B22D17B681B68DB6803F0080338
:1024CC00082B1BD17B681B686FF008021A617B68B4
:1024DC0004221A777B681B68DB6903F00303002B6B
:1024EC0003D0786800F05DF905E0786800F050F9E9
:1024FC00786800F05FF97B6800221A777B681B68AC
:10250C001B6903F01003102B22D17B681B68DB685E
:10251C0003F01003102B1BD17B681B686FF01002AB
:10252C001A617B6808221A777B681B68DB6903F4E5
:10253C004073002B03D0786800F033F905E078681D
:10254C0000F026F9786800F035F97B6800221A77DC
:10255C007B681B681B6903F00103012B0ED17B68A0
:10256C001B68DB6803F00103012B07D17B681B6838
:10257C006FF001021A617868FEF7D6FE7B681B6863
:10258C001B6903F08003802B0ED17B681B68DB6812
:10259C0003F08003802B07D17B681B686FF08002EF
:1025AC001A61786800F067FA7B681B681B6903F096
:1025BC004003402B0ED17B681B68DB6803F04003A3
:1025CC00402B07D17B681B686FF040021A6178685A
:1025DC0000F0F9F87B681B681B6903F02003202BC3
:1025EC000ED17B681B68DB6803F02003202B07D11E
:1025FC007B681B686FF020021A61786800F032FA71
:10260C0000BF0837BD4680BD80B584B000AF786090
:10261C0039607B6893F83C30012B01D10223B3E085
:10262C007B68012283F83C207B68022283F83D20E2
:10263C007B681B689B68FB60FB6823F07703FB607F
:10264C00FB6823F47F43FB607B681B68FA689A6025
:10265C003B681B68B3F5005F3ED0B3F5005F00F23A
:10266C008780B3F5805F00F08580B3F5805F7FD8FD
:10267C00702B1AD0702B7BD8602B50D0602B77D856
:10268C00502B3CD0502B73D8402B58D0402B6FD8AC
:10269C00302B64D0302B6BD8202B60D0202B67D8FC
:1026AC00002B5CD0102B5AD062E07B6818683B681A
:1026BC0099683B685A683B68DB6800F05CF97B689A
:1026CC001B689B68FB60FB6843F07703FB607B68CF
:1026DC001B68FA689A604EE07B6818683B689968DA
:1026EC003B685A683B68DB6800F045F97B681B68FF
:1026FC009A687B681B6842F480429A603BE07B6876
:10270C0018683B6859683B68DB681A4600F0BCF8EF
:10271C007B681B685021184600F013F92BE07B688E
:10272C0018683B6859683B68DB681A4600F0DAF8B1
:10273C007B681B686021184600F003F91BE07B687E
:10274C0018683B6859683B68DB681A4600F09CF8CF
:10275C007B681B684021184600F0F3F80BE07B689F
:10276C001A683B681B681946104600F0EAF802E04C
:10277C0000BF00E000BF7B68012283F83D207B682E
:10278C00002283F83C20002318461037BD4680BD3C
:10279C0080B483B000AF786000BF0C37BD4680BCFE
:1027AC00704780B483B000AF786000BF0C37BD4673
:1027BC0080BC704780B483B000AF786000BF0C372A
:1027CC00BD4680BC704780B483B000AF786000BF5A
:1027DC000C37BD4680BC704780B485B000AF7860C4
:1027EC0039607B681B68FB607B68254A934207D085
:1027FC007B68B3F1804F03D07B68224A934208D1A7
:10280C00FB6823F07003FB603B685B68FA6813435A
:10281C00FB607B681A4A934207D07B68B3F1804F08
:10282C0003D07B68174A934208D1FB6823F44073AA
:10283C00FB603B68DB68FA681343FB60FB6823F0C2
:10284C0080023B685B691343FB607B68FA681A6023
:10285C003B689A687B68DA623B681A687B689A62A4
:10286C007B68074A934203D13B681A697B681A63F9
:10287C007B6801225A6100BF1437BD4680BC70478B
:10288C00002C01400004004080B487B000AFF86019
:10289C00B9607A60FB681B6A7B61FB681B6A23F07A
:1028AC000102FB681A62FB689B693B613B6923F080
:1028BC00F0033B617B681B013A6913433B617B6905
:1028CC0023F00A037B617A69BB6813437B61FB6865
:1028DC003A699A61FB687A691A6200BF1C37BD4677
:1028EC0080BC704780B487B000AFF860B9607A6084
:1028FC00FB681B6A23F01002FB681A62FB689B6979
:10290C007B61FB681B6A3B617B6923F470437B61D1
:10291C007B681B037A6913437B613B6923F0A0033B
:10292C003B61BB681B013A6913433B61FB687A69E5
:10293C009A61FB683A691A6200BF1C37BD4680BCBD
:10294C00704780B485B000AF786039607B689B6855
:10295C00FB60FB6823F07003FB603A68FB68134371
:10296C0043F00703FB607B68FA689A6000BF14377A
:10297C00BD4680BC704780B487B000AFF860B960CA
:10298C007A603B60FB689B687B617B6923F47F43C7
:10299C007B613B681A027B681A43BB6813437A69F4
:1029AC0013437B61FB687A699A6000BF1C37BD4694
:1029BC0080BC704780B485B000AF786039607B68AC
:1029CC0093F83C30012B01D1022341E07B680122BA
:1029DC0083F83C207B68022283F83D207B681B68CF
:1029EC005B68FB607B681B689B68BB60FB6823F0C3
:1029FC007003FB603B681B68FA681343FB607B68E1
:102A0C001B68FA685A607B681B68144A934209D0A9
:102A1C007B681B68B3F1804F04D07B681B68104A3D
:102A2C0093420CD1BB6823F08003BB603B685B68AE
:102A3C00BA681343BB607B681B68BA689A607B6892
:102A4C00012283F83D207B68002283F83C20002380
:102A5C0018461437BD4680BC704700BF002C01409F
:102A6C000004004080B483B000AF786000BF0C3726
:102A7C00BD4680BC704780B483B000AF786000BFA7
:102A8C000C37BD4680BC704770B500260C4D0D4C04
:102A9C00641BA410A64209D100F022F800260A4DAE
:102AAC000A4C641BA410A64205D170BD55F8043B1A
:102ABC0098470136EEE755F8043B98470136F2E7A4
:102ACC00242B0008242B0008242B0008282B00089A
:102ADC0003460244934200D1704703F8011BF9E707
:102AEC00F8B500BFF8BC08BC9E467047F8B500BFEF
:082AFC00F8BC08BC9E467047BF
:102B040002030405060708090A0B0C0D0E0F10102A
:102B14000000000000000000010203040607080989
:042B24003101000873
:042B28000D01000893
:102B2C0001000000190000000024F4001000000057
:042B3C000100000094
:040000050800147D5E
:00000001FF
